:100000000238EF020006C2AFD2AF32022ED4C2AF26
:10001000D2AF3202000E123EB0123E9C2212002ECF
:0A002000223232023B7D123DEA223B
:10002B0002005E75F901E4F5A8F5B8F59AF5A9F5A6
:10003B00B9F580F590F5A0F5B075B750F5BCF5BDE9
:07004B00F5BE2253BEF722AF
:0700530002002143BE082258
:06005B00023A91C2C63218
:0300630002002276
:10006B00023B07C2AF12001D123E561200261200B1
:07007B001643C902D2AF22B7
:1000830002399012006E12382F123EBEE50A30E09C
:1000930027430F01E50A30E103430F02E50A30E28B
:1000A30003430F04E50A30E303430F08530AFE53E7
:1000B3000AFD530AFB530AF743C901C3E50994F444
:1000C300E5089401400B1232CEE4F508F509123429
:1000D30009122D27121F85E50F30E0B0530FFE5391
:0B00E3000FFD530FFB530FF780A2220C
:1000F800FFFF4457494E5435429505000042950389
:100108000000419502004194FE004194FF00429591
:10011800000000429509000042950700005A92C26B
:100128003FC900690064000086000A2D2D203A3A74
:10013800000000000000000000005A92DC3FCC01E3
:10014800270064000086000A2D2D2F3A3A0000008F
:10015800000000000000005A93683FD001E50064E9
:10016800000001E5006402AD007D001000171818BA
:1001780002000000603C932C400040A04140401029
:1001880040B04150402040C04160403040D04170B4
:10019800404040E04180405040F041904060410084
:1001A80041A04070411041B04080412041C0409082
:1001B800413041D054931841E041F842104228425E
:1001C8004042584270428842A042B8489309000011
:1001D8000000000000004293110000429316000046
:1001E800429313000041931500419308004292F690
:1001F8000005498000B2E2CAD4BABAD7D6006E6008
:10020800800949443030BBD8B7E7B8DFCEC2000018
:1002180000000000000000000000000000000000D6
:10022800000049443031BBD8B7E7B5CDCEC2000095
:1002380000000000000000000000000000000000B6
:10024800000049443032BBD8B7E7B8DFCAAA00007B
:100258000000000000000000000000000000000096
:10026800000049443033BBD8B7E7B8DFCAAA00005A
:100278000000000000000000000000000000000076
:10028800000049443034CBCDB7E7B8DFCEC2000018
:100298000000000000000000000000000000000056
:1002A800000049443035CBCDB7E7B5CDCEC200000C
:1002B8000000000000000000000000000000000036
:1002C800000049443036CBCDB7E7B8DFCAAA0000F2
:1002D8000000000000000000000000000000000016
:1002E800000049443037CBCDB7E7B5CDCAAA0000E6
:1002F80000000000000000000000000000000000F6
:10030800000049443038B1A3C1F4000000000000E7
:1003180000000000000000000000000000000000D5
:10032800000049443039C4DAB2BFCDA8D0C50000B6
:1003380000000000000000000000000000000000B5
:100348000000494431304E5443D2ECB3A3000000BE
:100358000000000000000000000000000000000095
:10036800000049443131B7E7BBFA31B9CAD5CF00EB
:100378000000000000000000000000000000000075
:10038800000049443132B7E7BBFA32B9CAD5CF00C9
:100398000000000000000000000000000000000055
:1003A800000049443133B7E7BBFA33B9CAD5CF00A7
:1003B8000000000000000000000000000000000035
:1003C800000049443134B7E7BBFA34B9CAD5CF0085
:1003D8000000000000000000000000000000000015
:1003E800000049443135B7E7BBFA35B9CAD5CF0063
:1003F80000000000000000000000000000000000F5
:10040800000049443136CDE2B7E7BBFAB9CAD5CFC7
:1004180000000000000000000000000000000000D4
:10042800000049443137B7E7BBFA31D4CBD0D0B359
:10043800ACCAB1000000000000000000000000008D
:10044800000049443138B7E7BBFA32D4CBD0D0B337
:10045800ACCAB1000000000000000000000000006D
:10046800000049443139B7E7BBFA33D4CBD0D0B315
:10047800ACCAB1000000000000000000000000004D
:10048800000049443230B7E7BBFA34D4CBD0D0B3FC
:10049800ACCAB1000000000000000000000000002D
:1004A800000049443231B7E7BBFA35D4CBD0D0B3DA
:1004B800ACCAB1000000000000000000000000000D
:1004C800000049443232CDE2B7E7BBFAD4CBD0D0F2
:1004D800B3ACCAB10000000000000000000000003A
:1004E800000049443233B8DFD1B931B8E6BEAF00B5
:1004F80000000000000000000000000000000000F4
:10050800000049443234B8DFD1B931CBF8CBC00050
:1005180000000000000000000000000000000000D3
:10052800000049443235B5CDD1B931B8E6BEAF0087
:1005380000000000000000000000000000000000B3
:10054800000049443236B5CDD1B931CBF8CBC00023
:100558000000000000000000000000000000000093
:10056800000049443237C5C5C6F8CEC2B6C831B84E
:10057800E6BEAF0000000000000000000000000020
:10058800000049443238C5C5C6F8CEC2B6C831CB1A
:10059800F8CBC000000000000000000000000000D0
:1005A800000049443239B6CCD6DCC6DA31B8E6BEEA
:1005B800AF00000000000000000000000000000084
:1005C800000049443330D1B9BBFA31D4CBD0D0B3D1
:1005D800ACCAB100000000000000000000000000EC
:1005E800000049443331B8DFD1B932B8E6BEAF00B4
:1005F80000000000000000000000000000000000F3
:10060800000049443332B8DFD1B932CBF8CBC0004F
:1006180000000000000000000000000000000000D2
:10062800000049443333B5CDD1B9D1B9C1A6B8E634
:10063800BEAF000000000000000000000000000045
:10064800000049443334B5CDD1B932CBF8CBC00022
:100658000000000000000000000000000000000092
:10066800000049443335C5C5C6F8CEC2B6C832B84D
:10067800E6BEAF000000000000000000000000001F
:10068800000049443336C5C5C6F8CEC2B6C832CB19
:10069800F8CBC000000000000000000000000000CF
:1006A800000049443337B6CCD6DCC6DA32B8E6BEE9
:1006B800AF00000000000000000000000000000083
:1006C800000049443338D1B9BBFA32D4CBD0D0B3C7
:1006D800ACCAB100000000000000000000000000EB
:1006E800000049443339BCD3CAAAC6F7B5E7C1F7F5
:1006F800B9FDB4F300000000000000000000000095
:10070800000049443430BCD3CAAAC6F7B8DFCBAE20
:10071800CEBB000000000000000000000000000048
:10072800000049443431BCD3CAAAC6F7C8B1CBAE1D
:1007380000000000000000000000000000000000B1
:10074800000049443432BCD3CAAAC6F7D4CBD0D0AF
:10075800B3ACCAB1000000000000000000000000B7
:10076800000049443433BCD3C8C8C6F7B8E6BEAFA6
:100778000000000000000000000000000000000071
:10078800000049443434BCD3C8C8C6F731B3ACCA36
:10079800B1000000000000000000000000000000A0
:1007A800000049443435BCD3C8C8C6F732B3ACCA14
:1007B800B100000000000000000000000000000080
:1007C800000049443436B6CFB5E7D6D8C6F40000A1
:1007D8000000000000000000000000000000000011
:1007E800000049443437B5E7D4B4CFE0D0F2B4EDD3
:1007F800CEF3000000000000000000000000000030
:10080800000049443438B5E7D4B4C6B5C2CAC6AB4B
:10081800B8DF000000000000000000000000000039
:10082800000049443439B5E7D4B4C6B5C2CAC6AB2A
:10083800B5CD00000000000000000000000000002E
:1008480000004944353041CFE0B9FDD1B90000007E
:100858000000000000000000000000000000000090
:1008680000004944353142CFE0B9FDD1B90000005C
:100878000000000000000000000000000000000070
:1008880000004944353243CFE0B9FDD1B92000001A
:100898000000000000000000000000000000000050
:1008A80000004944353341CFE0C7B7D1B900000053
:1008B8000000000000000000000000000000000030
:1008C80000004944353442CFE0C7B7D1B900000031
:1008D8000000000000000000000000000000000010
:1008E80000004944353543CFE0C7B7D1B90000000F
:1008F80000000000000000000000000000000000F0
:1009080000004944353641CFE0C8B1CFE0000000CF
:1009180000000000000000000000000000000000CF
:1009280000004944353742CFE0C8B1CFE0000000AD
:1009380000000000000000000000000000000000AF
:1009480000004944353843CFE0C8B1CFE00000008B
:10095800000000000000000000000000000000008F
:10096800000049443539C6F8C1F7B6AACAA7B8E69F
:10097800BEAF000000000000000000000000000002
:10098800000049443630B9FDC2CBCDF8D4CBD0D025
:10099800B3ACCAB100000000000000000000000075
:1009A800000049443631B9FDC2CBCDF8B6C2B8E62D
:1009B800BEAF0000000000000000000000000000C2
:1009C800000049443632D4B6B3CCB9D8BBFAB8E63D
:1009D800BEAF0000000000000000000000000000A2
:1009E800000049443633D2E7CBAEB8E6BEAF0000CC
:1009F80000000000000000000000000000000000EF
:100A0800000049443634C8BABFD8CDA8D0C5D2EC06
:100A1800B3A3000000000000000000000000000078
:100A2800000049443635B1E4C6B5C6F7B9CAD5CFD2
:100A380000000000000000000000000000000000AE
:100A4800000049443636D7A2CBAEB5E7B5BCC2CA1A
:100A5800B8DF0000000000000000000000000000F7
:100A6800000049443637D7A2CBAEB5E7B5BCC2CAF9
:100A7800B5CD0000000000000000000000000000EC
:100A8800000049443638D1CCCEEDB8E6BEAF000000
:100A9800000000000000000000000000000000004E
:100AA800000049443639D3C3BBA7D7D4B6A8D2E58A
:100AB800B8E6BEAF00000000000000000000000023
:100AC800000049443730B5E7D4B4D2ECB3A30000F2
:100AD800000000000000000000000000000000000E
:100AE800000049443731C8EBCBAEB8DFCEC20000B6
:100AF80000000000000000000000000000000000EE
:100B0800000049443732CBAEB7A7B9CAD5CF0000E9
:100B180000000000000000000000000000000000CD
:100B2800000049443733C5CCB9DCB6CFC1F7B8E6C5
:100B3800BEAF000000000000000000000000000040
:100B4800000049443734B7E7BBFA36B9CAD5CF00F5
:100B5800000000000000000000000000000000008D
:100B6800000049443735B7E7BBFA37B9CAD5CF00D3
:100B7800000000000000000000000000000000006D
:100B8800000049443736B7E7BBFA38B9CAD5CF00B1
:100B9800000000000000000000000000000000004D
:100BA800000049443737B7E7BBFA36B3ACCAB100DF
:100BB800000000000000000000000000000000002D
:100BC800000049443738B7E7BBFA37B3ACCAB100BD
:100BD800000000000000000000000000000000000D
:100BE800000049443739B7E7BBFA38B3ACCAB1009B
:100BF80000000000000000000000000000000000ED
:100C0800000049443830C5C5CBAEB8DFCBAECEBB4B
:100C180000000000000000000000000000000000CC
:100C2800000049443831BCD3CAAAC6F7D2ECB3A3F2
:100C380000000000000000000000000000000000AC
:100C4800000049443832B7E7D1B9B9FDB5CD000045
:100C5800000000000000000000000000000000008C
:100C6800000049443833BAECCDE2BCD3CAAAB9FD76
:100C7800C8C80000000000000000000000000000DC
:100C8800000049443834D1B9BBFA31B8DFD1B900D2
:100C9800000000000000000000000000000000004C
:100CA800000049443835B7E7BBFAB5E7C1F7B9FDE5
:100CB800B4F3000000000000000000000000000085
:100CC800000049443836B8A8C2B7C8EBCBAEB8DF85
:100CD800CEC200000000000000000000000000007C
:100CE800000049443837454556B8E6BEAF00000015
:100CF80000000000000000000000000000000000EC
:100D0800000049443838BDD3CBAEC5CCD2E7CBAE12
:100D180000000000000000000000000000000000CB
:100D2800000049443839C5C5C6F8B8DFCEC200004E
:100D380000000000000000000000000000000000AB
:100D4800000049443930C9E8B1B8CAB9D3C3B3AC13
:100D5800CAB1000000000000000000000000000010
:100D6800000049443931B1A3C1F40000000000007B
:100D7800000000000000000000000000000000006B
:100D8800000049443932B1A3C1F40000000000005A
:100D9800000000000000000000000000000000004B
:100DA800000049443933B1A3C1F400000000000039
:100DB800000000000000000000000000000000002B
:100DC800000049443934B1A3C1F400000000000018
:100DD800000000000000000000000000000000000B
:100DE800000049443935B1A3C1F4000000000000F7
:100DF80000000000000000000000000000000000EB
:100E0800000049443936B1A3C1F4000000000000D5
:100E180000000000000000000000000000000000CA
:100E2800000049443937BBD8B7E7CEC2CAAAB6C80A
:100E3800B4ABB8D0C6F70000000000000000000006
:100E4800000049443938CBCDB7E7CEC2CAAAB6C8E4
:100E5800B4ABB8D0C6F700000000000000000000E6
:100E6800000049443939BCD3CAAAB0E5D2ECB3A3CF
:100E7800000000000000000000000000000000006A
:100E880000004944313030C6C1C4BBD2D1CBF8B61A
:100E9800A8000000000000000000000000000000A2
:100EA80000004944313031D2BBCCECBDABCBF8B6F5
:100EB800A800000000000000000000000000000082
:100EC80000004944313032C8FDCCECBDABCBF8B69C
:100ED800A800000000000000000000000000000062
:100EE80000004944313033C6DFCCECBDABCBF8B69B
:100EF800A800000000000000000000000000000042
:100F080000004944313034CAAECEE5CCECBDABCBA1
:100F1800F8B6A80000000000000000000000000073
:100F280000004944313035C8FDCAAECCECBDABCB6E
:100F3800F8B6A80000000000000000000000000053
:100F480000004944313036B5E7D4B432CFE0D0F2AE
:100F5800B4ED0000000000000000000000000000E8
:100F680000004944313037B5E7D4B432C6B5C2CAF7
:100F7800B8DF0000000000000000000000000000D2
:100F880000004944313038B5E7D4B432C6B5C2CAD6
:100F9800B5CD0000000000000000000000000000C7
:100FA80000004944313039B5E7D4B43241CFE0B913
:100FB800FDD1B900000000000000000000000000A2
:100FC80000004944313130B5E7D4B43242CFE0B9FA
:100FD800FDD1B90000000000000000000000000082
:100FE80000004944313131B5E7D4B43243CFE0B9D8
:100FF800FDD1B90000000000000000000000000062
:1010080000004944313132B5E7D4B43241CFE0C7AA
:10101800B7D1B90000000000000000000000000087
:1010280000004944313133B5E7D4B43242CFE0C788
:10103800B7D1B90000000000000000000000000067
:1010480000004944313134B5E7D4B43243CFE0C766
:10105800B7D1B90000000000000000000000000047
:1010680000004190E9004190EA004290EB00004204
:1010780090ED00004290EF00004794D5000000007A
:101088000000004894E400000000000000004894BC
:10109800DC00000000000000004294EE00004294D2
:1010A800F000004294EC00004494FA000000004272
:1010B80094F200004494F4000000000208000004C8
:1010C8000B000000004294F80000010A0061008E45
:1010D8006900C1814001C0804101C0804100C181D7
:1010E8004001C0804100C1814000C1814001C080F1
:1010F8004101C0804100C1814000C1814001C080E0
:101108004100C1814001C0804101C0804100C181CE
:101118004001C0804100C1814000C1814001C080C0
:101128004100C1814001C0804101C0804100C181AE
:101138004000C1814001C0804101C0804100C1819F
:101148004001C0804100C1814000C1814001C08090
:101158004101C0804100C1814000C1814001C0807F
:101168004100C1814001C0804101C0804100C1816E
:101178004000C1814001C0804101C0804100C1815F
:101188004001C0804100C1814000C1814001C08050
:101198004100C1814001C0804101C0804100C1813E
:1011A8004001C0804100C1814000C1814001C08030
:1011B8004101C0804100C1814000C1814001C0801F
:1011C8004100C1814001C0804101C0804100C1810E
:1011D8004061008F6900C0C101C30302C2C606078F
:1011E800C705C5C404CC0C0DCD0FCFCE0E0ACACB93
:1011F8000BC90908C8D81819D91BDBDA1A1EDEDF93
:101208001FDD1D1CDC14D4D515D71716D6D2121322
:10121800D311D1D010F03031F133F3F23236F6F782
:1012280037F53534F43CFCFD3DFF3F3EFEFA3A3BD2
:10123800FB39F9F83828E8E929EB2B2AEAEE2E2FB2
:10124800EF2DEDEC2CE42425E527E7E62622E2E362
:1012580023E12120E0A06061A163A3A26266A6A7A2
:1012680067A56564A46CACAD6DAF6F6EAEAA6A6B12
:10127800AB69A9A86878B8B979BB7B7ABABE7E7F12
:10128800BF7DBDBC7CB47475B577B7B67672B2B3A2
:1012980073B17170B05090915193535292965657C2
:1012A80097559594549C5C5D9D5F9F9E5E5A9A9B52
:1012B8005B99595898884849894B8B8A4A4E8E8F32
:1012C8004F8D4D4C8C4484854587474686824243E2
:1012D800834181804041923D00419220004492BE6A
:1012E8000000000041921B0044921C000000004EC8
:1012F800922F5A020306C8000000A020035500FFE1
:101308004E922100000000000000000000000000D4
:10131800004191F200602891F30000A02DA05DA08B
:101328008D0000A02EA05EA08E0000A02FA05FA0C0
:101338008F0000A030A060A0900000A031A061A0A4
:10134800914191F1005894BD000000000000000098
:101358000000000000000000000000000000000085
:1013680058949D00000000000000010000000200E9
:10137800027360000A2D080007ED65419499FF602B
:101388006494350000010002000300040005000613
:10139800000700080009000A000B000C000D000EF1
:1013A800000F01100011001202130014001500169E
:1013B800001700180019001A001B021C001D001E4F
:1013C800001F002000210022002300240025002601
:1013D800022700280029002A002B002C002D002EAF
:1013E800002F03300031004894B5000101030203C7
:1013F800030542949B00004294330000429430005D
:10140800004194320000E709F608DFFA8046E70950
:10141800F208DFFA803E88828C83E709F0A3DFFABE
:101428008032E309F608DFFA8078E309F208DFFA88
:10143800807088828C83E309F0A3DFFA8064898254
:101448008A83E0A3F608DFFA805889828A83E0A3BA
:10145800F208DFFA804C80D280FA80C680D4806996
:1014680080F28033801080A680EA809A80A880DA93
:1014780080E280CA803389828A83ECFAE493A3C825
:10148800C582C8CCC583CCF0A3C8C582C8CCC583E7
:10149800CCDFE9DEE7800D89828A83E493A3F6082E
:1014A800DFF9ECFAA9F0EDFB2289828A83ECFAE0F5
:1014B800A3C8C582C8CCC583CCF0A3C8C582C8CC94
:1014C800C583CCDFEADEE880DB89828A83E493A3E4
:1014D800F208DFF980CC88F0EF60010E4E60C38817
:1014E800F0ED2402B4040050B9F582EB2402B404F0
:1014F8000050AF232345822390145E73BB010689F5
:10150800828A83E0225002E722BBFE02E32289821C
:101518008A83E49322BB010CE58229F582E5833AAC
:10152800F583E0225006E92582F8E622BBFE06E9AB
:101538002582F8E222E58229F582E5833AF583E4FB
:101548009322BB010689828A83F0225002F722BBCC
:10155800FE01F322EF8DF0A4A8F0CF8CF0A428CEE2
:101568008DF0A42EFE22BC000BBE0029EF8DF08466
:10157800FFADF022E4CCF875F008EF2FFFEE33FE54
:10158800EC33FCEE9DEC984005FCEE9DFE0FD5F08B
:10159800E9E4CEFD22EDF8F5F0EE8420D21CFEAD94
:1015A800F075F008EF2FFFED33FD4007985006D592
:1015B800F0F222C398FD0FD5F0EA22C5F0F8A3E0B7
:1015C80028F0C5F0F8E582158270021583E038F03E
:1015D80022A3F8E0C5F025F0F0E582158270021527
:1015E80083E0C838F0E822BB010A89828A83E0F5E3
:1015F800F0A3E022500687F009E71922BBFE07E3B3
:10160800F5F009E3192289828A83E493F5F07401DD
:101618009322BB0110E58229F582E5833AF583E040
:10162800F5F0A3E0225009E92582F886F008E622C1
:10163800BBFE0AE92582F8E2F5F008E222E5832AF2
:10164800F583E993F5F0A3E99322BB010A89828A1D
:1016580083F0E5F0A3F0225006F709A7F01922BBA2
:10166800FE06F3E5F009F31922EF2BFFEE3AFEED43
:1016780039FDEC38FC2275F008758200EF2FFFEE7B
:1016880033FECD33CDCC33CCC58233C5829BED9AA6
:10169800EC99E58298400CF582EE9BFEED9AFDEC04
:1016A80099FC0FD5F0D6E4CEFBE4CDFAE4CCF9A84A
:1016B8008222B800C1B90059BA002DEC8BF084CF52
:1016C800CECDFCE5F0CBF97818EF2FFFEE33FEED29
:1016D80033FDEC33FCEB33FB10D703994004EB9953
:1016E800FB0FD8E5E4F9FA227818EF2FFFEE33FE66
:1016F800ED33FDEC33FCC933C910D7059BE99A409B
:1017080007EC9BFCE99AF90FD8E0E4C9FAE4CCFBB2
:101718002275F010EF2FFFEE33FEED33FDCC33CC06
:10172800C833C810D7079BEC9AE899400AED9BFD8F
:10173800EC9AFCE899F80FD5F0DAE4CDFBE4CCFAA2
:10174800E4C8F922EB9FF5F0EA9E42F0E99D42F0E9
:10175800EC6480C864809845F022EB9FF5F0EA9E1F
:1017680042F0E99D42F0E89C45F022E86010ECA2C6
:10177800E713FCED13FDEE13FEEF13FFD8F022E0A4
:10178800FCA3E0FDA3E0FEA3E0FF22E0F8A3E0F95C
:10179800A3E0FAA3E0FB22ECF0A3EDF0A3EEF0A3A4
:1017A800EFF022A8828583F0D083D0821217C2126C
:1017B80017C21217C21217C2E473E493A3C583C5F4
:1017C800F0C583C8C582C8F0A3C583C5F0C583C862
:1017D800C582C822A42582F582E5F03583F58322E7
:1017E800E0FBA3E0FAA3E0F922F8E0FBA3A3E0F909
:1017F80025F0F0E582158270021583E0FA38F022B0
:10180800EBF0A3EAF0A3E9F022D083D082F8E493C6
:101818007012740193700DA3A393F8740193F58269
:101828008883E4737402936860EFA3A3A380DFD076
:1018380083D082F8E4937012740193700DA3A3937C
:10184800F8740193F5828883E473740293B5F00603
:101858007403936860E9A3A3A3A380D8E3F5F00910
:10186800E208B5F06BDFF58067E3F5F009E608B547
:10187800F05EDFF5805A87F009E608B5F052DFF62A
:10188800804E87F009E208B5F046DFF6804288828C
:101898008C8387F009E0A3B5F036DFF680328882C2
:1018A8008C8387F009E493A3B5F025DFF5802188C0
:1018B800828C83E3F5F009E0A3B5F014DFF580101E
:1018C80088828C83E3F5F009E493A3B5F002DFF492
:1018D800021993808780E9809080D4803E801580AB
:1018E8006E807E809D80B7808D80A38051807480BB
:1018F8003C02199F89828A83ECFAE493F5F0A3C825
:10190800C582C8CCC583CCE493A3C8C582C8CCC55E
:1019180083CCB5F076DFE3DEE1807089828A83E4E8
:1019280093F5F0A3E208B5F062DFF4805E89828A5D
:1019380083E0F5F0A3E608B5F051DFF5804D898224
:101948008A83E0F5F0A3E208B5F040DFF5803C8932
:10195800828A83E493F5F0A3E608B5F02EDFF480DD
:101968002A8002805789828A83ECFAE493F5F0A3EF
:10197800C8C582C8CCC583CCE0A3C8C582C8CCC5BD
:1019880083CCB5F006DFE4DEE280007FFFB5F0022D
:101998000F2240027F012289828A83ECFAE0F5F067
:1019A800A3C8C582C8CCC583CCE0A3C8C582C8CCAF
:1019B800C583CCB5F0D5DFE5DEE380CF89828A83A5
:1019C800ECFAE0F5F0A3C8C582C8CCC583CCE49393
:1019D800A3C8C582C8CCC583CCB5F0AFDFE4DEE2CE
:1019E80080A988F0EF60010E4E60ABED2402B404CC
:1019F800005098F582EB2402B40400508E2323454E
:101A080082239018DB73EF4E6012EF60010EEDBB7E
:101A1800010B89828A83F0A3DFFCDEFA2289F05069
:101A280007F709DFFCA9F022BBFEFCF309DFFCA9DC
:101A3800F022F8BB010DE58229F582E5833AF583AA
:101A4800E8F0225006E92582C8F622BBFE05E92502
:101A580082C8F2227BFF7A3E79D078BD7C937D01E3
:101A68007E007F3E1214DE7BFF7A3F790E78FC7C85
:101A7800937D017E007F241214DE7B017A9379BD69
:101A8800909429E4F0A3743EF07F207EAB12284E98
:101A9800E49093FBF09093FBE0C3941074809480DF
:101AA8004003021CFDE0FF7E007401A807088005C2
:101AB800C333CE33CED8F9FF9093C3E0FCA3E0FD47
:101AC800EE5CFEEF5D4E7003021CE19093FBE0FFBD
:101AD8007E007401A807088005C333CE33CED8F939
:101AE800FF9093C7E0FCA3E0FDEE5CFEEF5D4E7057
:101AF80003021C8E9093FBE0FF1313543F2407FF4F
:101B0800E433909422F0A3EFF0909422E0FEA3E057
:101B180025E0FFEE33FE74BD2FF58274933EF58306
:101B2800E0FEA3E0FF9093FBE0540325E025E0FDF1
:101B3800EFA805088005CEC313CE13D8F9540FFFBC
:101B4800909420E4F0A3EFF0909420E0FEA3E08EC0
:101B5800F01218371B8000001B9800011BB0000210
:101B68001BC800041BDF00051BF600061C0D00083F
:101B78001C24000900001C3B9093FBE025E024FC9A
:101B8800F582E43493F583E4F0A37405F0021C5065
:101B98009093FBE025E024FCF582E43493F583E49C
:101BA800F0A37406F0021C509093FBE025E024FC9F
:101BB800F582E43493F583E4F0A37407F0021C5033
:101BC8009093FBE025E024FCF582E43493F583E46C
:101BD800F0A37408F080719093FBE025E024FCF5F5
:101BE80082E43493F583E4F0A37409F0805A909367
:101BF800FBE025E024FCF582E43493F583E4F0A3CC
:101C0800740AF080439093FBE025E024FCF582E41D
:101C18003493F583E4F0A37403F0802C9093FBE0F5
:101C280025E024FCF582E43493F583E4F0A37404FE
:101C3800F080159093FBE025E024FCF582E43493D2
:101C4800F583E4F0A37405F09093FBE0FF7E007445
:101C580001A807088005C333CE33CED8F9FF909387
:101C6800BFE0FCA3E0FDEE5CFEEF5D4E607E90936E
:101C7800FBE025E024FCF582E43493F583E475F079
:101C8800081215C380669093FBE0FF7E007401A8DC
:101C980007088005C333CE33CED8F9FF9093BFE051
:101CA800FCA3E0FDEE5CFEEF5D4E60179093FBE059
:101CB80025E024FCF582E43493F583E4F0A3740270
:101CC800F080299093FBE025E024FCF582E434932E
:101CD800F583E4F0A304F080139093FBE025E0245F
:101CE800FCF582E43493F583E4F0A3F09093FBE0F1
:101CF80004F0021A9D9093FB7410F09093FBE0C3DC
:101D08009412748094804003021F6EE024F0FF7EDA
:101D1800007401A807088005C333CE33CED8F9FF75
:101D28009093C5E0FCA3E0FDEE5CFEEF5D4E700312
:101D3800021F529093FBE024F0FF7E007401A80775
:101D4800088005C333CE33CED8F9FF9093C9E0FCA1
:101D5800A3E0FDEE5CFEEF5D4E7003021EFD909366
:101D6800FBE0FF1313543F2407FFE433909422F061
:101D7800A3EFF0909422E0FEA3E025E0FFEE33FE0F
:101D880074BD2FF58274933EF583E0FEA3E0FF90C7
:101D980093FBE0540325E025E0FDEFA80508800546
:101DA800CEC313CE13D8F9540FFF909420E4F0A3B8
:101DB800EFF0909420E0FEA3E08EF01218371DEAB1
:101DC80000001E0200011E1A00021E3200041E49F5
:101DD80000051E6000061E7700081E8E0009000020
:101DE8001EA59093FBE025E024FCF582E43493F5EE
:101DF80083E4F0A37405F0021EBA9093FBE025E09B
:101E080024FCF582E43493F583E4F0A37406F0022D
:101E18001EBA9093FBE025E024FCF582E43493F5A8
:101E280083E4F0A37407F0021EBA9093FBE025E068
:101E380024FCF582E43493F583E4F0A37408F0807D
:101E4800719093FBE025E024FCF582E43493F5835C
:101E5800E4F0A37409F0805A9093FBE025E024FC99
:101E6800F582E43493F583E4F0A3740AF080439098
:101E780093FBE025E024FCF582E43493F583E4F059
:101E8800A37403F0802C9093FBE025E024FCF582FA
:101E9800E43493F583E4F0A37404F080159093FB85
:101EA800E025E024FCF582E43493F583E4F0A374A0
:101EB80005F09093FBE024F0FF7E007401A807086A
:101EC8008005C333CE33CED8F9FF9093C1E0FCA38D
:101ED800E0FDEE5CFEEF5D4E7003021F659093FB24
:101EE800E025E024FCF582E43493F583E475F008FA
:101EF8001215C380689093FBE024F0FF7E00740104
:101F0800A807088005C333CE33CED8F9FF9093C114
:101F1800E0FCA3E0FDEE5CFEEF5D4E60179093FBE6
:101F2800E025E024FCF582E43493F583E4F0A3741F
:101F380002F080299093FBE025E024FCF582E4344C
:101F480093F583E4F0A304F080139093FBE025E07D
:101F580024FCF582E43493F583E4F0A3F09093FB3A
:101F6800E004F0021D037B017A9379FC909429E444
:101F7800F0A37424F07FA07EAB122ABB22E50F30B9
:101F8800E0167B017A957905909429E4F0A3740210
:101F9800F07F147E0012284EE50F30E203123D98C0
:101FA800E50F20E303022305909505E0FEA3E04E2C
:101FB8006003022044909382F0A3F07B017A937926
:101FC80082909429F0A37402F07F217EA012284EFB
:101FD800909503E0FEA3E064014E6012909382E0C6
:101FE800FEA3E064014E7006909502E004F090951F
:101FF80003E0FEA3E064024E6013909382E0FEA328
:10200800E064024E7007909502E02402F090950378
:10201800E0FEA3E064034E6013909382E0FEA3E029
:1020280064034E7007909502E02404F0909382E0D8
:10203800FEA3E0FF909503EEF0A3EFF0909505E086
:10204800FEA3E0640B4E7003121A5C909505E0FE47
:10205800A3E064294E60030221347B017A937985D9
:10206800909429F0A3741CF07FB07EC912284EE426
:10207800909382F0909382E0C39407748094804098
:102088000302211EE025E025E02485F582E434934F
:10209800F583E0FEA3E0C4F8540FC868FDEEC4540D
:1020A800F048FC909382E025E025E02487F582E45F
:1020B8003493F583E0FEA3E0EEC4540F2DFFE43C17
:1020C800909383F0A3EFF0909383E0FEA3E0FF7C6E
:1020D800007D1812156E909382E025E024A1F58208
:1020E800E43493F583EEF0A3EFF0909383E0FEA33E
:1020F800E0FF7C007D1812156E909382E025E024A5
:10210800AFF582E43493F583ECF0A3EDF09093827D
:10211800E004F002207C7B017A9379A1909429E471
:10212800F0A3741CF07F207EC9122ABB909505E0AD
:10213800FEA3E0642C4E60030221CA7B017A9379E6
:1021480088909429F0A37402F07FA07ECC12284EC8
:10215800909388E0FEA3E0FFEEC4F854F0C868FE50
:10216800EFC4540F48EE540F909382F0A3E4F0901C
:102178009382E0FCA3E0FD909388E0FEA3E078075B
:10218800CEC313CE13D8F9541FFFECFEED4FFF90CA
:102198009382EEF0A3EFF0909388E0A3E0547F9051
:1021A8009384F0A3E4F0A304F0A304F07B017A93F2
:1021B8007982909429E4F0A37406F07F207ECC12F3
:1021C8002ABB909505E0FEA3E064274E70569094D4
:1021D800FEE0C39405748094805042909382E4F0AA
:1021E800A304F0FB7A937982909429E4F0A3740213
:1021F800F07F257EA0122ABB909382E4F0A3745A44
:10220800F07B017A937982909429E4F0A37402F028
:102218007F857EA0122ABB9094FEE004F0E490949F
:10222800FFF080539094FFE0C3940574809480502D
:1022380041E4909382F0A3F07B017A9379829094A1
:1022480029F0A37402F07F257EA0122ABB90938206
:10225800E4F0A3745AF07B017A937982909429E48C
:10226800F0A37402F07F857EA0122ABB9094FFE051
:1022780004F0E49094FEF07B017A9379829094299B
:10228800E4F0A37402F07F167E0012284E90938229
:10229800E0FEA3E04E6024E4909382F0A3F07B017B
:1022A8007A937982909429F0A37402F07F167E00C5
:1022B800122ABBE4909500F0A3F022909500E0FE6E
:1022C800A3E0C39458EE9402500B909500E475F087
:1022D800011215C322909500E0FEA3E0B4581EEE4B
:1022E800B4021A909500E475F0011215C390950593
:1022F800E0FEA3E04E6006E4FFFE123CE12290936C
:102308008712180890938AECF0A3EDF0E4A3F0A3E9
:10231800F090938AE0FEA3E0FFA3E0FCA3E0C39F54
:10232800EC9E500C90938CE475F0011215C380E17B
:1023380090938AE0FEA3E0C39405EE940050030254
:1023480025BFE4A3F0A3F09093871217E890938C2D
:10235800E0FEA3E0F5828E8312151D64026003027D
:1023680025999093871217E890938CE0A3E029F9B8
:10237800EA3EFA90000112151D121811238E03244B
:10238800E206000025999093871217E890938CE055
:10239800FEA3E029F9EA3EFA90000212151DFF900B
:1023A8009390E4F0A3EFF090938CE0A3E0FF909378
:1023B80090E0FCA3E02FFFEC3EFEEF2405FFE43E97
:1023C800FE90938AE0FCA3E0FDD3EF9DEE9C4011C4
:1023D80090938AE0FEA3E0FFA3EEF0A3EFF00225BE
:1023E800999093871217E890938CE0FEA3E029F95F
:1023F800EA3EFA909390E0FEA3E02403FDE43EFC5D
:10240800123A1690938EEEF0A3EFF090938712177E
:10241800E890938CE0FEA3E029F9EA3EFA909390C5
:10242800E0FEA3E029F9EA3EFA90000312151DFD2B
:1024380090938EE0FEA3E0EE6D7001E46003022548
:10244800999093871217E890938CE0FEA3E029F9FE
:10245800EA3EFA909390E0FEA3E029F9EA3EFA906A
:10246800000412151DFF90938EE0A3E06F7001E445
:102478006003022599909229E0FEA3E0FF909387DC
:102488001217E8E92403F9E43AFAC003C002C001CC
:102498009093871217E890000212151DFD90942959
:1024A800E4F0A3EDF0D001D002D003122ABB7E00E5
:1024B8007F0E7D007B017A927921121A0E909390FB
:1024C800E0FEA3E02405FFE43E90938CF0A3EFF038
:1024D8009091F1E04402F002259990938CE0FEA3DC
:1024E800E02408FFE43EFE90938AE0FCA3E0FDD3DD
:1024F800EF9DEE9C401190938AE0FEA3E0FFA3EECF
:10250800F0A3EFF00225999093871217E890938C27
:10251800E0FEA3E029F9EA3EFA7D067C00123A16AD
:1025280090938EEEF0A3EFF09093871217E89093B4
:102538008CE0FEA3E029F9EA3EFA90000612151D88
:10254800FD90938EE0FEA3E0EE6D7001E470429082
:1025580093871217E890938CE0FEA3E029F9EA3EEE
:10256800FA90000712151DFF90938EE0A3E0B507BF
:1025780020E490938C75F0081215C37E007F0E7DC1
:10258800007B017A927921121A0E9091F1E04402AF
:10259800F090938CE475F0011215C390938AE0FED5
:1025A800A3E024FBFFEE34FFFEA3E0FCA3E0C39FFF
:1025B800EC9E500302234F229093871218089093A1
:1025C800871217E812150490938AF090938AE0C353
:1025D800940174809480400302283EE075F00EA4B4
:1025E800242FF582E43492F583E0645A60030228CC
:1025F8003590938AE075F00EA42432F582E4349283
:10260800F583E0700302283590938AE075F00EA4F4
:102618002434F582E43492F583E0700302283E9076
:10262800938AE075F00EA42434F582E43492F5839D
:10263800E06401702D90938AE075F00EA42435F5BE
:1026480082E43492F583E0FEA3E0FF909505E0FC78
:10265800A3E06F7002EC6E600302283502283E0288
:10266800283590938AE075F00EA42434F582E4347A
:1026780092F583E06402600302273D90938AE07537
:10268800F00EA42435F582E43492F583E0FEA3E04D
:10269800FF7B017A93798B909429E4F0A37402F07C
:1026A80012284E90938BE0A3E0645A600302283509
:1026B80090938AE0C3748094805048E075F00EA42B
:1026C8002442F582E43492F583E0640270359093F5
:1026D8008AE075F00EA42443F582E43492F583E091
:1026E800FEA3E0FF90938AE075F00EA42435F582EE
:1026F800E43492F583E0FCA3E06F7002EC6E7003A3
:1027080002283EE490938BF0A3F090938AE075F052
:102718000EA42435F582E43492F583E0FEA3E0FFAD
:102728007B017A93798B909429E4F0A37402F012D8
:102738002ABB02283E90938AE075F00EA42434F553
:1027480082E43492F583E0640360030228359093B1
:102758008AE075F00EA4243BF582E43492F583E018
:10276800FEA3E0FF909505E0FCA3E0FDEF6D70028D
:10277800EE6C600302283590938AE075F00EA4246D
:1027880035F582E43492F583E0FEA3E0FF7B017A1D
:1027980093798B909429E4F0A37402F012284E9058
:1027A800938BE0A3E0645A600302283590938AE093
:1027B800C3748094805045E075F00EA42442F582DD
:1027C800E43492F583E06403703290938AE075F004
:1027D8000EA42443F582E43492F583E0FEA3E0FFDF
:1027E80090938AE075F00EA42435F582E43492F5CE
:1027F80083E0FCA3E06F7002EC6E603AE490938B88
:10280800F0A3F090938AE075F00EA42435F582E4E5
:102818003492F583E0FEA3E0FF7B017A93798B90F5
:102828009429E4F0A37402F0122ABB800990938AD9
:10283800E004F00225D390938AE0FF909387121763
:10284800E8EF12154A22909424EEF0A3EFF0A312B9
:1028580018087B007A007900C003C002C001909478
:10286800261217E8D082D083D0E06B7008E9658221
:102878007003EA65837003022ABA909429E0FEA3E4
:10288800E04E7003022ABA909429E0A3E0FFEEC359
:1028980013FEEF13FF909424E0FCA3E02FFFEE3C1F
:1028A800FED3EF94FEEE94FF4003022ABAC2AF9023
:1028B8009424E0A3E0540190942BF0909424E0FE3B
:1028C800A3E0FFEEC313FEEF13FF909424EEF0A3F2
:1028D800EFF0909424E0FEA3E07810CEC313CE135B
:1028E800D8F9F5F1909424E0FEA3E0EEF5F2909487
:1028F80024E0A3E0F5F3E4F5F875F401D2FF30FC29
:10290800FDD2FD90942BE064017072909429E0FE52
:10291800A3E064014E700AC2FBC2FAD2F9C2F88081
:1029280008C2FBC2FAD2F9D2F8D2FE20FEFD90947A
:1029380029E0FEA3E064014E701A90942675F00118
:102948001217F1E5FC12154A90942974FFF5F0125C
:1029580015C38029909426E475F0011217F1E5FC5F
:1029680012154A909426E475F0011217F1E5FD124C
:10297800154A90942974FF75F0FE1215C390942996
:10298800E0FEA3E04E7003022AB5909429E0A3E08C
:10299800C39404EE94004003022A5E909429E0A3B5
:1029A800E08EF012183729D2000129C8000229BE8A
:1029B8000003000029DAD2FBD2FAD2F9C2F8801259
:1029C800D2FBD2FAC2F9C2F88008D2FBC2FAC2F925
:1029D800C2F8D2FE20FEFD909429E0FEA3E08EF01E
:1029E8001218372A4B00012A2B000229FB0003008A
:1029F800002AB5909426E475F0011217F1E5FA1251
:102A0800154A909426E475F0011217F1E5FB1215AA
:102A18004A909426E475F0011217F1E5FC12154A64
:102A2800022AB5909426E475F0011217F1E5FA121E
:102A3800154A909426E475F0011217F1E5FB12157A
:102A48004A806A909426E475F0011217F1E5FA12AB
:102A5800154A80598057D2FBD2FAD2F9D2F8D2FE61
:102A680020FEFD909426E475F0011217F1E5FA12A4
:102A7800154A909426E475F0011217F1E5FB12153A
:102A88004A909426E475F0011217F1E5FC12154AF4
:102A9800909426E475F0011217F1E5FD12154A909D
:102AA800942974FF75F0FC1215C3022985E4F5F822
:102AB800D2AF22909424EEF0A3EFF0A31218087B73
:102AC800007A007900C003C002C001909426121752
:102AD800E8D082D083D0E06B7008E965827003EAA1
:102AE80065837003022D26909429E0FEA3E04E70C2
:102AF80003022D26909429E0A3E0FFEEC313FEEF16
:102B080013FF909424E0FCA3E02FFFEE3CFED3EFEC
:102B180094FEEE94FF4003022D26C2AF909424E069
:102B2800A3E0540190942BF0909424E0FEA3E0FFDE
:102B3800EEC313FEEF13FF909424EEF0A3EFF09092
:102B48009424E0FEA3E07810CEC313CE13D8F9F591
:102B5800F1909424E0FEA3E0EEF5F2909424E0A333
:102B6800E0F5F3E4F5F875F401D2FF30FCFDC2FDA1
:102B780090942BE064017072909429E0FEA3E064C5
:102B8800014E700AC2FBC2FAD2F9C2F88008C2FB31
:102B9800C2FAD2F9D2F8909429E0FEA3E064014E7B
:102BA800701A90942675F0011217F1121504F5FCAD
:102BB80090942974FFF5F01215C38029909426E4A7
:102BC80075F0011217F1121504F5FC909426E475BE
:102BD800F0011217F1121504F5FD90942974FF7590
:102BE800F0FE1215C3D2FE20FEFD909429E0FEA34C
:102BF800E04E7003022D21909429E0A3E0C39404D1
:102C0800EE94004003022CCA909429E0A3E08EF0D1
:102C18001218372C3F00012C3500022C2B00030022
:102C2800002C47D2FBD2FAD2F9C2F88012D2FBD2DA
:102C3800FAC2F9C2F88008D2FBC2FAC2F9C2F89007
:102C48009429E0FEA3E08EF01218372CB200012C74
:102C58009200022C63000300002CC1909426E475B6
:102C6800F0011217F1121504F5FA909426E475F0A4
:102C7800011217F1121504F5FB909426E475F00182
:102C88001217F1121504F5FC802F909426E475F0C4
:102C9800011217F1121504F5FA909426E475F00163
:102CA8001217F1121504F5FB800F909426E475F0C5
:102CB800011217F1121504F5FAD2FE30FE5B80FB03
:102CC8008057D2FBD2FAD2F9D2F8909426E475F064
:102CD800011217F1121504F5FA909426E475F00123
:102CE8001217F1121504F5FB909426E475F0011201
:102CF80017F1121504F5FC909426E475F0011217EB
:102D0800F1121504F5FDD2FE20FEFD90942974FF02
:102D180075F0FC1215C3022BF2E4F5F8D2AF227B52
:102D2800007A007900909382121808909220E0644B
:102D3800016003022DBE90921BE0FF90923DE0D30C
:102D48009F4011E090921BF09092BE1217AB0000CA
:102D58000000806290921BE0FF90923DE06F7056F9
:102D6800FFFEFDFC9092BE121793D31217624038F3
:102D78009092BE121793C3E50E9BFFE50D9AFEE5F0
:102D88000C99FDE50B98FCE47B0AFAF9F8C31217D5
:102D98006250237B017A92793E90923DE0FD7C005F
:102DA800122306123DC4800EAF0EAE0DAD0CAC0B57
:102DB8009092BE12179F9091F1E030E03AE020E146
:102DC8002990921C121793C3E50E9BFBE50D9AFA06
:102DD800E50C99F9E50B98F8909225E0FFE4FCFDE5
:102DE800FEC31217625003022ED39091F1E030E136
:102DF8002DA3E004F0802790921C121793C3E50ED0
:102E08009BFFE50D9AFEE50C99FDE50B98FCE47B2C
:102E1800F47A01F9F8D31217624003022ED3909185
:102E2800F2E07003123189AF0EAE0DAD0CAC0B9011
:102E3800921C12179F9091F1E054FDF0E054FEF0BF
:102E48007B017A9179F21225C09091F2E0C3940146
:102E5800748094805070E075F00EA4242FF9749259
:102E680035F0FA7B0178217C927D017E007F0E127D
:102E780014DE909223E0640370117B017A92792129
:102E88001235259091F1E04401F022909223E064FC
:102E9800067038909229E0FEA3E0FF7B017A9379CF
:102EA80085909429E4F0A37402F012284E7B017AED
:102EB800927921909385E0FCA3E0FD123640909131
:102EC800F1E04401F022E49091F2F022C0E0C0F079
:102ED800C083C082C0D075D000C000C001C002C08D
:102EE80003C004C005C006C007C2AF758CBC758A94
:102EF800CD9094EEE475F0011215C39094EEE0FEC7
:102F0800A3E0D394E8EE940340189094EEE4F0A381
:102F1800F0A375F0011215C39094ECE475F001125A
:102F280015C343C9019094FA121787E47B01FAF993
:102F3800F81216719094FA12179F9094F2E475F0B3
:102F4800011215C39094F4121787E4F812167190C1
:102F580094F412179F9094F8E0FEA3E0FFE4FCFDC0
:102F68007BDC7AFFF8D312174C400A9094F8E4758A
:102F7800F0011215C30509E50970020508AF0EAE88
:102F88000DAD0CAC0BE47B01FAF9F81216718F0E3B
:102F98008E0D8D0C8C0BE47B641216BAAC00AD015F
:102FA800AE02AF03EC4D4E4F7011AF0EAE0DAD0C2F
:102FB800AC0BEC4D4E4F6003430A02E47BFAFAF97E
:102FC800F8AF0EAE0DAD0CAC0B1216BAAC00AD01DD
:102FD800AE02AF03EC4D4E4F7011AF0EAE0DAD0CFF
:102FE800AC0BEC4D4E4F6003430A04E47BF47A01CA
:102FF800F9F8AF0EAE0DAD0CAC0B1216BAAC00ADB5
:1030080001AE02AF03EC4D4E4F7011AF0EAE0DADD9
:103018000CAC0BEC4D4E4F6003430A08430A01D237
:10302800AFD007D006D005D004D003D002D001D04D
:1030380000D0D0D082D083D0F0D0E032909390EFFF
:10304800F0A3EDF0A3EBF0E490939DF0A3F0909340
:1030580090E024D0FFE4340790939DF0A3EFF09024
:10306800939DE0FEA3E0FF7C007D6412156E9093B3
:1030780093ECF0A3EDF090939DE0FEA3E0FF7C00BD
:103088007D6412156E909395EEF0A3EFF0909391F6
:10309800E0FF909397E4F0A3EFF0909392E0FF9015
:1030A8009399E4F0A3EFF0909397E0FEA3E0640116
:1030B8004E600B909397E0A3E064024E70149093D7
:1030C8009374FFF5F01215C3909397E475F00C1202
:1030D80015C3909393E0FEA3E07802CEC313CE13FA
:1030E800D8F9FF909393E0FCA3E02FFDEE3CFCA3FE
:1030F800E0FEA3E07802CEC313CE13D8F92DFDEC81
:103108003EFC909395E0FEA3E025E0FFEE33FEC37E
:10311800ED9FFBEC9EFAA3E0FEA3E02401FFE43E52
:10312800FE7C007D0D12155C7D0512156EEF2BFFE0
:10313800EE3AFEA3E0FCA3E02FFFEE3CFEEF24FFF7
:10314800FFEE34FFA3F0A3EFF090939BE0FEA3E023
:10315800C3EE9400500C90939BE475F0071215C3CE
:1031680080E790939BE0FEA3E0FF7C007D071215AB
:103178006E90939BECF0A3EDF090939BE0A3E0FF9F
:10318800227BFF7A3F793278877C937D017E007FAE
:10319800281214DEE49093AFF0A3F09093AFE0FE12
:1031A800A3E0C39405EE940040030232CD9093AFA0
:1031B800E0A3E07803C333CE33CED8F924F4F58204
:1031C80074913EF583E0FF909505E0FCA3E0FDEFE8
:1031D8006D7001EC60030232C09093AFE0FEA3E093
:1031E8007803C333CE33CED8F924F5F58274913EF3
:1031F800F583E0FEA3E0FF7B017A93798790942919
:10320800E4F0A37402F012284E9093AFE0FEA3E01E
:103218007803C333CE33CED8F924F7F58274913EC0
:10322800F583E0FEA3E0FF7B017A937989909429E6
:10323800E4F0A37402F012284E909389E0FEA3E014
:10324800FF909387E0FCA3E06F7002EC6E606990DA
:1032580093AFE0FEA3E07803C333CE33CED8F9248E
:10326800F7F58274913EF583E0FEA3E0FF7B017AD7
:10327800937987909429E4F0A37402F0122ABB9002
:10328800938BE4F0A3745AF09093AFE0FEA3E07838
:1032980003C333CE33CED8F924F9F58274913EF5C1
:1032A80083E0FEA3E0FF7B017A93798B909429E475
:1032B800F0A37402F0122ABB9093AFE475F00112E8
:1032C80015C30231A322123E097F64123C8E7F107F
:1032D800123C8E123E85123E097F65123C8E9093F9
:1032E8008A7406F090938AE0D394007480948040A6
:1032F8001D123C3990938AE02482F582E43493F5D8
:1033080083EFF0123E2490938AE014F080D6123CAA
:1033180039909382EFF0123E3D123E85E490938AF5
:10332800F090938AE0C3940374809480504BE02417
:1033380082F582E43493F583E0FFC4540F90938BB5
:10334800F090938AE02482F582E43493F583E05484
:103358000F90938CF090938BE075F00AA4FFA3E094
:103368002FFF90938AE02482F582E43493F583EF6B
:10337800F090938AE004F080A890938A7404F09007
:10338800938AE0C3940774809480504BE02482F5BC
:1033980082E43493F583E0FFC4540F90938BF0904C
:1033A800938AE02482F582E43493F583E0540F9005
:1033B800938CF090938BE075F00AA4FFA3E02FFFA5
:1033C80090938AE02482F582E43493F583EFF090B9
:1033D800938AE004F080A8909382E0FFA3E0FDA325
:1033E800E0FB123044909385EFF07B017A93798269
:1033F800909429E4F0A37408F07F107E00122ABB91
:1034080022E490938FF07B017A9479E4909429F0E8
:10341800A37408F07F9C7E0012284E9094E4E06428
:103428005A6003023524A3E064A5600302352490A2
:10343800938A7402F090938AE0C39408748094800D
:10344800504EE024E4F582E43494F583E075F00A04
:103458008490938BF090938AE024E4F582E434948A
:10346800F583E075F00A8490938CE5F0F090938BE7
:10347800E0C454F0FFA3E02FFF90938AE02482F584
:1034880082E43493F583EFF090938AE004F080A50A
:10349800909384E09094DCF0909385E09094DDF034
:1034A800909386E09094DEF0909387E09094E0F01B
:1034B800909388E09094E1F0909389E09094E2F002
:1034C8009094E6E0FFA3E0FDA3E0FB123044909364
:1034D8008EEFF0E490938DF0A3E09094DFF090935A
:1034E8008E75F00A8490938BF090938EE075F00AB5
:1034F8008490938CE5F0F07B017A9479DC1237584C
:10350800E49094E4F0A3F07B017A9479E490942910
:10351800F0A37408F07F9C7E00122ABB2290938748
:10352800121808E490938CF09093871217E8900093
:103538000112151DFF90938CE0FE04F0748D2EF59A
:1035480082E43493F583EFF090938CE0FF04F074F9
:103558008D2FF582E43493F5837403F090938712EA
:1035680017E890000A12161AE5F0FF90938CE0FE17
:1035780004F0748D2EF582E43493F583EFF0909384
:10358800871217E890000A12161AFF90938CE0FE33
:1035980004F0748D2EF582E43493F583EFF0909364
:1035A800871217E890000312151DFFE490938CE032
:1035B800FE04F0748D2EF582E43493F583E4F090E4
:1035C80093871217E890000312151DFF90938CE063
:1035D800FE04F0748D2EF582E43493F583EFF07BCE
:1035E800017A93798D90938CE0FD7C00123A1690C5
:1035F800938AEEF0A3EFF090938AE0FEA3E0EEFF4B
:10360800A3E0FE04F0748D2EF582E43493F583EF85
:10361800F090938AE0A3E0FFA3E0FE04F0748D2EFF
:10362800F582E43493F583EFF07B017A93798D90FA
:10363800938CE0FD123BDF22909387121808909339
:103648008AECF0A3EDF0E490938EF0909387121734
:10365800E890000112151DFF90938EE0FE04F074AF
:103668008F2EF582E43493F583EFF090938EE0FF8C
:1036780004F0748F2FF582E43493F5837406F09088
:1036880093871217E890000A12161AE5F0FF909334
:103698008EE0FE04F0748F2EF582E43493F583EF08
:1036A800F09093871217E890000A12161AFF909369
:1036B8008EE0FE04F0748F2EF582E43493F583EFE8
:1036C800F090938AE0FEA3E0EEFF90938EE0FE0474
:1036D800F0748F2EF582E43493F583EFF090938A9B
:1036E800E0A3E0FF90938EE0FE04F0748F2EF58245
:1036F800E43493F583EFF07B017A93798F90938E7E
:10370800E0FD7C00123A1690938CEEF0A3EFF09057
:10371800938CE0FEA3E0EEFFA3E0FE04F0748F2E8E
:10372800F582E43493F583EFF090938CE0A3E0FF07
:10373800A3E0FE04F0748F2EF582E43493F583EF52
:10374800F07B017A93798F90938EE0FD123BDF2214
:10375800909390121808123E097F64123C8E7F30B5
:10376800123C8EE4FF123C8E123E85123E097F64A5
:10377800123C8E7F1C123C8E7F48123C8EE4FF1256
:103788003C8E7F40123C8E7F10123C8E123E85127A
:103798003E097F64123C8E7F10123C8E90939012EB
:1037A80017E890000612151DFF123C8E9093901298
:1037B80017E890000512151DFF123C8E9093901289
:1037C80017E890000412151DFF123C8E909390127A
:1037D80017E890000312151DFF123C8E909390126B
:1037E80017E890000212151DFF123C8E909390125C
:1037F80017E890000112151DFF123C8E909390124D
:1038080017E8121504FF123C8E123E85123E097FFE
:1038180064123C8E7F1E123C8EE4FF123C8E7F1099
:10382800123C8E123E8522123E097F64123C8E7F26
:103838001D123C8E123E85123E097F65123C8E1287
:103848003C39909382EFF0123E24123C39123E3DEF
:10385800123E85909382E05402640260030238EEBF
:10386800123E097F64123C8E7F30123C8EE4FF12B8
:103878003C8E123E85123E097F64123C8E7F1C12DC
:103888003C8E7F48123C8EE4FF123C8E7F40123CF7
:103898008E7F10123C8E123E85123E097F64123CC8
:1038A8008E7F10123C8EE4FF123C8EE4FF123C8E99
:1038B800E4FF123C8E7F01123C8E7F01123C8E7F0A
:1038C80001123C8E7F17123C8E123E85123E097FF4
:1038D80064123C8E7F1E123C8EE4FF123C8E7F10D9
:1038E800123C8E123E8522759401759502758E00E4
:1038F80075930075C87075C96075F800787FE4F62F
:10390800D8FD75811002394B020086E493A3F8E4D0
:1039180093A34003F68001F208DFF48029E493A31F
:10392800F85407240CC8C333C4540F4420C8834038
:1039380004F456800146F6DFE4800B010204081007
:10394800204080900100E47E019360BCA3FF543FB7
:1039580030E509541FFEE493A360010ECF54C0253F
:10396800E060A840B8E493A3FAE493A3F8E493A32F
:10397800C8C582C8CAC583CAF0A3C8C582C8CAC593
:1039880083CADFE9DEE780BEC0E0C0F0C083C08242
:10399800C0D075D000C000C004C006C00790942DE8
:1039A800E4F0C2AFE59B30E03DE59CF0E0FF90908D
:1039B800EBE0FCA3E024F1F58274903CF583EFF092
:1039C8009090EBE475F0011215C3539BFE539BFED8
:1039D8009090EBE0FEA3E0C39480EE940040079043
:1039E80090EBE4F0A3F0E59B30E10B539BFD539B78
:1039F800FD9090EAE4F043C901D2AFD007D006D0D9
:103A080004D000D0D0D082D083D0F0D0E0329093D0
:103A1800A31218089093A6ECF0A3EDF0A374FFF09E
:103A2800A3F09093A674FFF5F01215D945F0604DF8
:103A38009093A3E475F0011217F1121504FF909307
:103A4800A8E06FFF9093AAE4F0A3EFF09093AAE0A8
:103A5800FEA3E02469F582748E3EF583E0FF90931F
:103A6800A9E06F9093A8F09093AAE0A3E02469F5E9
:103A780082748F3EF583E09093A9F080A59093A877
:103A8800E0FEA3E0FDEEEDFF22C0E0C0F0C083C081
:103A980082C0D075D000C000C004C006C007909492
:103AA8002EE4F0C2AFE59754016401703AE59FF047
:103AB800E0FF9090EDE0FCA3E02471F58274913C66
:103AC800F583EFF09090EDE475F0011215C353976C
:103AD800FE9090EDE0FEA3E0C39480EE94004007D2
:103AE8009090EDE4F0A3F043C901D2AFD007D0061F
:103AF800D004D000D0D0D082D083D0F0D0E032C073
:103B0800E0C0F0C083C082C0D075D000C000C0043F
:103B1800C006C00790942FE4F0C2AFE5AB5401642F
:103B280001703AE5ADF0E0FF9090EFE0FCA3E024EF
:103B380069F58274903CF583EFF09090EFE475F0AE
:103B4800011215C353ABFE9090EFE0FEA3E0C394BF
:103B580080EE940040079090EFE4F0A3F043C90191
:103B6800D2AFD007D006D004D000D0D0D082D08336
:103B7800D0F0D0E032C0E0C083C082C0D075D000A1
:103B8800C006C00790942CE4F0C2AF309830E59995
:103B9800F090923DE0C3948074809480501E90947D
:103BA8002CE0FF90923DE0FE04F0743E2EF582E496
:103BB8003492F583EFF09092207401F0C298309916
:103BC80007C2999090E9E4F0D2AFD007D006D0D0E0
:103BD800D082D083D0E0329093A31218089093A695
:103BE800EDF07B007A007900C003C002C001909319
:103BF800A31217E8D082D083D0E06B7008E9658201
:103C08007003EA658360299093A6E060239093A6E9
:103C1800E0FF14F0EF60199093A31217E81215044F
:103C2800FF123E6E9093A4E475F0011215C380DD77
:103C38002212004EE490938DF090938DE0FF33951F
:103C4800E0FEC3EF9408EE6480948050337F051241
:103C58003D66D2B27F05123D6690938EE0FF25E067
:103C6800F030B306E04401F0800790938EE054FEF4
:103C7800F0C2B27F05123D6690938DE004F080B9E2
:103C880090938EE0FF22909393EFF0120056E4A3F6
:103C9800F0909394E0FF3395E0FEC3EF9408EE6450
:103CA8008094805030909393E030E704D2B3800240
:103CB800C2B3909393E0FF25E0F07F05123D66D2F2
:103CC800B27F05123D66C2B27F05123D669093949D
:103CD800E004F080BC123D28229093BDEEF0A3EFE3
:103CE800F07BFF7A3E79CC78BF7C937D017E007FA4
:103CF800041214DE9093BDE0FEA3E0EE9093C1F0B1
:103D08009093BDA3E09093C2F07B017A9379BF9022
:103D18009429E4F0A37404F07F847E00122ABB2265
:103D280012004ED2B37F05123D66D2B27F05123D16
:103D380066E4909395F0909395E0C39432748094E0
:103D480080501030B30D7F05123D66909395E004C6
:103D5800F080E3C2B27F05123D66120056229093AE
:103D680096EFF0909396E06026E4A3F0909397E0A6
:103D7800FF3395E0FEC3EF9432EE648094805007E1
:103D8800E0F0E004F080E5909396E014F080D4220F
:103D9800909502E060259093BDE4F0A37405F0903F
:103DA8009502E014F07B017A9379BD909429E4F0B0
:103DB800A37402F07FA07E00122ABB22E490923DF9
:103DC800F0909220F0FE7F80FD7B017A92793E127E
:103DD8001A0EE490921BF09092BE1217AB000000EE
:103DE800002243B71043C940E49090E9F075D880A9
:103DF80075985053877F75BA0375AA58D29CD2AC70
:103E080022120056D2B3D2B27F0F123D66C2B37FE0
:103E18000F123D66C2B27F0F123D6622120056C2D3
:103E2800B37F05123D66D2B27F05123D66C2B27FEE
:103E380005123D6622120056D2B37F05123D66D2A6
:103E4800B27F05123D66C2B27F05123D662275F942
:103E58000175B70375BC03E4F5BD75BE0CF580F5B7
:103E680090F5A0F5B0229093A7EFF09090E9E06468
:103E78000160F87401F09093A7E0F59922120056BA
:103E8800C2B3D2B27F0F123D66D2B37F0F123D6626
:103E980012004E2275C870E4F5CDF5CC75CBFF75D0
:103EA800CAEF43A820D2C822438901758CBC758A01
:103EB800CDD2A9D28C22123DC490921C1217AB000D
:103EC800000000225A01000000000000000000006D
:103ED80000000000000000000000000000000000DA
:103EE80000000000000000000000000000000000CA
:103EF80000000000000000000000000000000000BA
:103F080000000000000000000000000000000000A9
:103F18000000000000000000000000000000000099
:103F28000000000000000000000000000000000089
:103F38000000000000000000000000000000000079
:103F48000000000000000000000000000000000069
:103F58000000000000000000000000000000000059
:00000001FF
