:10000000022882020006C2AFD2AF32022099C2AFEC
:10001000D2AF3202000E122F44122F3022122E4A7B
:0100200022BD
:07002300022B82122E6A225B
:10002B00022F60909265121785E49092A8F0E0FF82
:10003B0004F074682FF582E43492F5837401F09028
:10004B0092A8E0FF04F074682FF582E43492F583F4
:10005B007403F09092651217659000041214B0FFB0
:10006B009092651217659000051214B025E0FF9071
:10007B0092A8E0FE04F074682EF582E43492F583C6
:10008B00EFF09092651217659000021214B0FE907B
:10009B0092651217659000031214B0FDEEEDFF9000
:1000AB0092A8E02468F9E43492FA7B01E02467F526
:1000BB0082E43492F583E0FD9092AEE4F0A3EDF090
:1000CB001219B79092A8E02467F582E43492F58375
:1000DB00E0FF9092A8E02FF07B017A927968E0FD27
:0C00EB00122AAC2253BEF72243BE0822AA
:1000F800FFFF4457494E54354292E700004292E5CB
:1001080000004192E4004292E200004292EB0000BB
:100118004292E900005A90693FC9006900640000F2
:1001280086000A2D2D203A3A000000000000000049
:1001380000005A90833FCC01270064000086000A23
:100148002D2D2F3A3A000000000000000000005A50
:10015800910F3FD001E50064000001E5006402ADA5
:10016800007D00100017181802000000603C90D3B2
:10017800400040A04140401040B04150402040C0A5
:100188004160403040D04170404040E041804050A4
:1001980040F041904060410041A04070411041B0A2
:1001A8004080412041C04090413041D05490BF41EF
:1001B800E041F84210422842404258427042884288
:1001C800A042B84890B00000000000000000429033
:1001D800B800004290BD00004290BA00004190BCB7
:1001E800004190AF0042909D0005498000B2E2CAEC
:1001F800D4BABAD7D6006E60800949443030BBD82B
:10020800B7E7B8DFCEC20000000000000000000021
:100218000000000000000000000049443031BBD855
:10022800B7E7B5CDCEC20000000000000000000016
:100238000000000000000000000049443032BBD834
:10024800B7E7B8DFCAAA00000000000000000000FD
:100258000000000000000000000049443033BBD813
:10026800B7E7B8DFCAAA00000000000000000000DD
:100278000000000000000000000049443034CBCDED
:10028800B7E7B8DFCEC200000000000000000000A1
:100298000000000000000000000049443035CBCDCC
:1002A800B7E7B5CDCEC20000000000000000000096
:1002B8000000000000000000000049443036CBCDAB
:1002C800B7E7B8DFCAAA000000000000000000007D
:1002D8000000000000000000000049443037CBCD8A
:1002E800B7E7B5CDCAAA0000000000000000000072
:1002F8000000000000000000000049443038B1A3AD
:10030800C1F4000000000000000000000000000030
:100318000000000000000000000049443039C4DA41
:10032800B2BFCDA8D0C5000000000000000000004A
:1003380000000000000000000000494431304E5425
:1003480043D2ECB3A300000000000000000000004E
:100358000000000000000000000049443131B7E708
:10036800BBFA31B9CAD5CF00000000000000000078
:100378000000000000000000000049443132B7E7E7
:10038800BBFA32B9CAD5CF00000000000000000057
:100398000000000000000000000049443133B7E7C6
:1003A800BBFA33B9CAD5CF00000000000000000036
:1003B8000000000000000000000049443134B7E7A5
:1003C800BBFA34B9CAD5CF00000000000000000015
:1003D8000000000000000000000049443135B7E784
:1003E800BBFA35B9CAD5CF000000000000000000F4
:1003F8000000000000000000000049443136CDE252
:10040800B7E7BBFAB9CAD5CF00000000000000006A
:100418000000000000000000000049443137B7E741
:10042800BBFA31D4CBD0D0B3ACCAB10000000000C5
:100438000000000000000000000049443138B7E720
:10044800BBFA32D4CBD0D0B3ACCAB10000000000A4
:100458000000000000000000000049443139B7E7FF
:10046800BBFA33D4CBD0D0B3ACCAB1000000000083
:100478000000000000000000000049443230B7E7E7
:10048800BBFA34D4CBD0D0B3ACCAB1000000000062
:100498000000000000000000000049443231B7E7C6
:1004A800BBFA35D4CBD0D0B3ACCAB1000000000041
:1004B8000000000000000000000049443232CDE294
:1004C800B7E7BBFAD4CBD0D0B3ACCAB100000000B8
:1004D8000000000000000000000049443233B8DF8B
:1004E800D1B931B8E6BEAF0000000000000000003E
:1004F8000000000000000000000049443234B8DF6A
:10050800D1B931CBF8CBC0000000000000000000DA
:100518000000000000000000000049443235B5CD5D
:10052800D1B931B8E6BEAF000000000000000000FD
:100538000000000000000000000049443236B5CD3C
:10054800D1B931CBF8CBC00000000000000000009A
:100558000000000000000000000049443237C5C513
:10056800C6F8CEC2B6C831B8E6BEAF00000000007B
:100578000000000000000000000049443238C5C5F2
:10058800C6F8CEC2B6C831CBF8CBC0000000000018
:100598000000000000000000000049443239B6CCD9
:1005A800D6DCC6DA31B8E6BEAF00000000000000B5
:1005B8000000000000000000000049443330D1B9B9
:1005C800BBFA31D4CBD0D0B3ACCAB1000000000024
:1005D8000000000000000000000049443331B8DF8B
:1005E800D1B932B8E6BEAF0000000000000000003C
:1005F8000000000000000000000049443332B8DF6A
:10060800D1B932CBF8CBC0000000000000000000D8
:100618000000000000000000000049443333B5CD5D
:10062800D1B9D1B9C1A6B8E6BEAF0000000000003C
:100638000000000000000000000049443334B5CD3C
:10064800D1B932CBF8CBC000000000000000000098
:100658000000000000000000000049443335C5C513
:10066800C6F8CEC2B6C832B8E6BEAF000000000079
:100678000000000000000000000049443336C5C5F2
:10068800C6F8CEC2B6C832CBF8CBC0000000000016
:100698000000000000000000000049443337B6CCD9
:1006A800D6DCC6DA32B8E6BEAF00000000000000B3
:1006B8000000000000000000000049443338D1B9B0
:1006C800BBFA32D4CBD0D0B3ACCAB1000000000022
:1006D8000000000000000000000049443339BCD38A
:1006E800CAAAC6F7B5E7C1F7B9FDB4F30000000020
:1006F8000000000000000000000049443430BCD372
:10070800CAAAC6F7B8DFCBAECEBB00000000000017
:100718000000000000000000000049443431BCD350
:10072800CAAAC6F7C8B1CBAE00000000000000009E
:100738000000000000000000000049443432BCD32F
:10074800CAAAC6F7D4CBD0D0B3ACCAB10000000057
:100758000000000000000000000049443433BCD30E
:10076800C8C8C6F7B8E6BEAF000000000000000029
:100778000000000000000000000049443434BCD3ED
:10078800C8C8C6F731B3ACCAB10000000000000009
:100798000000000000000000000049443435BCD3CC
:1007A800C8C8C6F732B3ACCAB100000000000000E8
:1007B8000000000000000000000049443436B6CFB5
:1007C800B5E7D6D8C6F4000000000000000000001D
:1007D8000000000000000000000049443437B5E77D
:1007E800D4B4CFE0D0F2B4EDCEF3000000000000A6
:1007F8000000000000000000000049443438B5E75C
:10080800D4B4C6B5C2CAC6ABB8DF00000000000049
:100818000000000000000000000049443439B5E73A
:10082800D4B4C6B5C2CAC6ABB5CD0000000000003E
:10083800000000000000000000004944353041CFAE
:10084800E0B9FDD1B9000000000000000000000080
:10085800000000000000000000004944353142CF8C
:10086800E0B9FDD1B9000000000000000000000060
:10087800000000000000000000004944353243CF6A
:10088800E0B9FDD1B9200000000000000000000020
:10089800000000000000000000004944353341CF4B
:1008A800E0C7B7D1B9000000000000000000000058
:1008B800000000000000000000004944353442CF29
:1008C800E0C7B7D1B9000000000000000000000038
:1008D800000000000000000000004944353543CF07
:1008E800E0C7B7D1B9000000000000000000000018
:1008F800000000000000000000004944353641CFE8
:10090800E0C8B1CFE00000000000000000000000D7
:10091800000000000000000000004944353742CFC5
:10092800E0C8B1CFE00000000000000000000000B7
:10093800000000000000000000004944353843CFA3
:10094800E0C8B1CFE0000000000000000000000097
:100958000000000000000000000049443539C6F8D6
:10096800C1F7B6AACAA7B8E6BEAF000000000000EB
:100978000000000000000000000049443630B9FDC6
:10098800C2CBCDF8D4CBD0D0B3ACCAB100000000F4
:100998000000000000000000000049443631B9FDA5
:1009A800C2CBCDF8B6C2B8E6BEAF0000000000006A
:1009B8000000000000000000000049443632D4B6B0
:1009C800B3CCB9D8BBFAB8E6BEAF0000000000004F
:1009D8000000000000000000000049443633D2E760
:1009E800CBAEB8E6BEAF000000000000000000007B
:1009F8000000000000000000000049443634C8BA76
:100A0800BFD8CDA8D0C5D2ECB3A300000000000029
:100A18000000000000000000000049443635B1E441
:100A2800C6B5C6F7B9CAD5CF00000000000000005F
:100A38000000000000000000000049443636D7A23C
:100A4800CBAEB5E7B5BCC2CAB8DF000000000000F5
:100A58000000000000000000000049443637D7A21B
:100A6800CBAEB5E7B5BCC2CAB5CD000000000000EA
:100A78000000000000000000000049443638D1CCD6
:100A8800CEEDB8E6BEAF0000000000000000000098
:100A98000000000000000000000049443639D3C3BC
:100AA800BBA7D7D4B6A8D2E5B8E6BEAF0000000011
:100AB8000000000000000000000049443730B5E79E
:100AC800D4B4D2ECB3A30000000000000000000082
:100AD8000000000000000000000049443731C8EB66
:100AE800CBAEB8DFCEC2000000000000000000005E
:100AF8000000000000000000000049443732CBAE7F
:100B0800B7A7B9CAD5CF0000000000000000000058
:100B18000000000000000000000049443733C5CC45
:100B2800B9DCB6CFC1F7B8E6BEAF000000000000E0
:100B38000000000000000000000049443734B7E717
:100B4800BBFA36B9CAD5CF0000000000000000008B
:100B58000000000000000000000049443735B7E7F6
:100B6800BBFA37B9CAD5CF0000000000000000006A
:100B78000000000000000000000049443736B7E7D5
:100B8800BBFA38B9CAD5CF00000000000000000049
:100B98000000000000000000000049443737B7E7B4
:100BA800BBFA36B3ACCAB100000000000000000078
:100BB8000000000000000000000049443738B7E793
:100BC800BBFA37B3ACCAB100000000000000000057
:100BD8000000000000000000000049443739B7E772
:100BE800BBFA38B3ACCAB100000000000000000036
:100BF8000000000000000000000049443830C5C56E
:100C0800CBAEB8DFCBAECEBB0000000000000000CA
:100C18000000000000000000000049443831BCD347
:100C2800CAAAC6F7D2ECB3A3000000000000000077
:100C38000000000000000000000049443832B7E717
:100C4800D1B9B9FDB5CD00000000000000000000DA
:100C58000000000000000000000049443833BAECEE
:100C6800CDE2BCD3CAAAB9FDC8C800000000000084
:100C78000000000000000000000049443834D1B9E9
:100C8800BBFA31B8DFD1B900000000000000000055
:100C98000000000000000000000049443835B7E7B4
:100CA800BBFAB5E7C1F7B9FDB4F3000000000000D6
:100CB8000000000000000000000049443836B8A8D1
:100CC800C2B7C8EBCBAEB8DFCEC200000000000050
:100CD8000000000000000000000049443837454586
:100CE80056B8E6BEAF00000000000000000000009B
:100CF8000000000000000000000049443838BDD35F
:100D0800CBAEC5CCD2E7CBAE00000000000000009F
:100D18000000000000000000000049443839C5C543
:100D2800C6F8B8DFCEC200000000000000000000D6
:100D38000000000000000000000049443930C9E804
:100D4800B1B8CAB9D3C3B3ACCAB10000000000003F
:100D58000000000000000000000049443931B1A340
:100D6800C1F40000000000000000000000000000C6
:100D78000000000000000000000049443932B1A31F
:100D8800C1F40000000000000000000000000000A6
:100D98000000000000000000000049443933B1A3FE
:100DA800C1F4000000000000000000000000000086
:100DB8000000000000000000000049443934B1A3DD
:100DC800C1F4000000000000000000000000000066
:100DD8000000000000000000000049443935B1A3BC
:100DE800C1F4000000000000000000000000000046
:100DF8000000000000000000000049443936B1A39B
:100E0800C1F4000000000000000000000000000025
:100E18000000000000000000000049443937BBD83A
:100E2800B7E7CEC2CAAAB6C8B4ABB8D0C6F70000F6
:100E38000000000000000000000049443938CBCD14
:100E4800B7E7CEC2CAAAB6C8B4ABB8D0C6F70000D6
:100E58000000000000000000000049443939BCD3FC
:100E6800CAAAB0E5D2ECB3A300000000000000005D
:100E7800000000000000000000004944313030C686
:100E8800C1C4BBD2D1CBF8B6A80000000000000056
:100E9800000000000000000000004944313031D259
:100EA800BBCCECBDABCBF8B6A8000000000000003E
:100EB800000000000000000000004944313032C842
:100EC800FDCCECBDABCBF8B6A800000000000000DC
:100ED800000000000000000000004944313033C623
:100EE800DFCCECBDABCBF8B6A800000000000000DA
:100EF800000000000000000000004944313034CAFE
:100F0800AECEE5CCECBDABCBF8B6A8000000000037
:100F1800000000000000000000004944313035C8DE
:100F2800FDCAAECCECBDABCBF8B6A8000000000003
:100F3800000000000000000000004944313036B5D0
:100F4800E7D4B432CFE0D0F2B4ED000000000000E6
:100F5800000000000000000000004944313037B5AF
:100F6800E7D4B432C6B5C2CAB8DF0000000000003A
:100F7800000000000000000000004944313038B58E
:100F8800E7D4B432C6B5C2CAB5CD0000000000002F
:100F9800000000000000000000004944313039B56D
:100FA800E7D4B43241CFE0B9FDD1B9000000000068
:100FB800000000000000000000004944313130B555
:100FC800E7D4B43242CFE0B9FDD1B9000000000047
:100FD800000000000000000000004944313131B534
:100FE800E7D4B43243CFE0B9FDD1B9000000000026
:100FF800000000000000000000004944313132B513
:10100800E7D4B43241CFE0C7B7D1B900000000003F
:10101800000000000000000000004944313133B5F1
:10102800E7D4B43242CFE0C7B7D1B900000000001E
:10103800000000000000000000004944313134B5D0
:10104800E7D4B43243CFE0C7B7D1B90000000000FD
:10105800000000000000000000004192ED004792EF
:10106800B9000000000000004892C800000000001D
:101078000000004892C000000000000000004292FA
:10108800D200004292D400004292D000004492DE86
:10109800000000004292D600004492D800000000F0
:1010A80002080000040B000000004292DC0000016E
:1010B8000A0061008E6900C1814001C0804101C001
:1010C800804100C1814001C0804100C1814000C110
:1010D800814001C0804101C0804100C1814000C100
:1010E800814001C0804100C1814001C0804101C0F0
:1010F800804100C1814001C0804100C1814000C1E0
:10110800814001C0804100C1814001C0804101C0CF
:10111800804100C1814000C1814001C0804101C0BF
:10112800804100C1814001C0804100C1814000C1AF
:10113800814001C0804101C0804100C1814000C19F
:10114800814001C0804100C1814001C0804101C08F
:10115800804100C1814000C1814001C0804101C07F
:10116800804100C1814001C0804100C1814000C16F
:10117800814001C0804100C1814001C0804101C05F
:10118800804100C1814001C0804100C1814000C14F
:10119800814001C0804101C0804100C1814000C13F
:1011A800814001C0804100C1814001C0804101C02F
:1011B800804100C1814061008F6900C0C101C30343
:1011C80002C2C60607C705C5C404CC0C0DCD0FCF97
:1011D800CE0E0ACACB0BC90908C8D81819D91BDB07
:1011E800DA1A1EDEDF1FDD1D1CDC14D4D515D71757
:1011F80016D6D21213D311D1D010F03031F133F307
:10120800F23236F6F737F53534F43CFCFD3DFF3F56
:101218003EFEFA3A3BFB39F9F83828E8E929EB2B86
:101228002AEAEE2E2FEF2DEDEC2CE42425E527E716
:10123800E62622E2E323E12120E0A06061A163A386
:10124800A26266A6A767A56564A46CACAD6DAF6F16
:101258006EAEAA6A6BAB69A9A86878B8B979BB7B86
:101268007ABABE7E7FBF7DBDBC7CB47475B577B7D6
:10127800B67672B2B373B17170B050909151935306
:10128800529296565797559594549C5C5D9D5F9FD6
:101298009E5E5A9A9B5B99595898884849894B8B06
:1012A8008A4A4E8E8F4F8D4D4C8C44848545874796
:1012B800468682424383418180404191D5004191D5
:1012C800D400449256000000004191CF004491D0D0
:1012D800000000004191CE005891B60000000000C7
:1012E80000000000000000000000000000000000F6
:1012F8000000005891960000000000000001000066
:10130800000200027360000A2D080007ED65419194
:1013180092FF6064912E00000100020003000400A7
:10132800050006000700080009000A000B000C0071
:101338000D000E000F01100011001202130014001E
:10134800150016001700180019001A001B021C00CF
:101358001D001E001F002000210022002300240081
:10136800250026022700280029002A002B002C002F
:101378002D002E002F03300031004891AE000101EE
:101388000302030305429194000042912C0000429D
:101398009129000041912B0000E709F608DFFA8047
:1013A80046E709F208DFFA803E88828C83E709F075
:1013B800A3DFFA8032E309F608DFFA8078E309F25E
:1013C80008DFFA807088828C83E309F0A3DFFA8053
:1013D8006489828A83E0A3F608DFFA805889828AC2
:1013E80083E0A3F208DFFA804C80D280FA80C680BE
:1013F800D4806980F28033801080A680EA809A8049
:10140800A880DA80E280CA803389828A83ECFAE491
:1014180093A3C8C582C8CCC583CCF0A3C8C582C86D
:10142800CCC583CCDFE9DEE7800D89828A83E4932B
:10143800A3F608DFF9ECFAA9F0EDFB2289828A838A
:10144800ECFAE0A3C8C582C8CCC583CCF0A3C8C554
:1014580082C8CCC583CCDFEADEE880DB89828A8358
:10146800E493A3F208DFF980CC88F0EF60010E4E18
:1014780060C388F0ED2402B4040050B9F582EB246F
:1014880002B4040050AF23234582239013F173BBA9
:10149800010689828A83E0225002E722BBFE02E32A
:1014A8002289828A83E49322BB010CE58229F58292
:1014B800E5833AF583E0225006E92582F8E622BB67
:1014C800FE06E92582F8E222E58229F582E5833ADB
:1014D800F583E49322BB010689828A83F0225002B5
:1014E800F722BBFE01F322F8BB010DE58229F58244
:1014F800E5833AF583E8F0225006E92582C8F6220A
:10150800BBFE05E92582C8F222EF8DF0A4A8F0CF32
:101518008CF0A428CE8DF0A42EFE22BC000BBE00B9
:1015280029EF8DF084FFADF022E4CCF875F008EFD8
:101538002FFFEE33FEEC33FCEE9DEC984005FCEEFD
:101548009DFE0FD5F0E9E4CEFD22EDF8F5F0EE842E
:1015580020D21CFEADF075F008EF2FFFED33FD40F3
:1015680007985006D5F0F222C398FD0FD5F0EA226D
:10157800C5F0F8A3E028F0C5F0F8E58215827002FE
:101588001583E038F022A3F8E0C5F025F0F0E582F5
:10159800158270021583E0C838F0E822BB010A8979
:1015A800828A83E0F5F0A3E022500687F009E71964
:1015B80022BBFE07E3F5F009E3192289828A83E456
:1015C80093F5F074019322BB010A89828A83F0E5BE
:1015D800F0A3F0225006F709A7F01922BBFE06F384
:1015E800E5F009F31922EF2BFFEE3AFEED39FDEC99
:1015F80038FC2275F008758200EF2FFFEE33FECD20
:1016080033CDCC33CCC58233C5829BED9AEC99E5BA
:101618008298400CF582EE9BFEED9AFDEC99FC0F4A
:10162800D5F0D6E4CEFBE4CDFAE4CCF9A88222B812
:1016380000C1B90059BA002DEC8BF084CFCECDFC97
:10164800E5F0CBF97818EF2FFFEE33FEED33FDEC24
:1016580033FCEB33FB10D703994004EB99FB0FD80D
:10166800E5E4F9FA227818EF2FFFEE33FEED33FDAB
:10167800EC33FCC933C910D7059BE99A4007EC9BAA
:10168800FCE99AF90FD8E0E4C9FAE4CCFB2275F03A
:1016980010EF2FFFEE33FEED33FDCC33CCC833C84B
:1016A80010D7079BEC9AE899400AED9BFDEC9AFC51
:1016B800E899F80FD5F0DAE4CDFBE4CCFAE4C8F900
:1016C80022EB9FF5F0EA9E42F0E99D42F0EC64803F
:1016D800C864809845F022EB9FF5F0EA9E42F0E955
:1016E8009D42F0E89C45F022E86010ECA2E713FC6C
:1016F800ED13FDEE13FEEF13FFD8F022E0FCA3E09C
:10170800FDA3E0FEA3E0FF22E0F8A3E0F9A3E0FADE
:10171800A3E0FB22ECF0A3EDF0A3EEF0A3EFF022A0
:10172800A8828583F0D083D08212173F12173F1208
:10173800173F12173FE473E493A3C583C5F0C5832D
:10174800C8C582C8F0A3C583C5F0C583C8C582C80B
:1017580022A42582F582E5F03583F58322E0FBA3F8
:10176800E0FAA3E0F922F8E0FBA3A3E0F925F0F002
:10177800E582158270021583E0FA38F022EBF0A3B7
:10178800EAF0A3E9F022D083D082F8E493701274CF
:101798000193700DA3A393F8740193F5828883E4F1
:1017A800737402936860EFA3A3A380DFD083D08211
:1017B800F8E4937012740193700DA3A393F8740165
:1017C80093F5828883E473740293B5F006740393E7
:1017D8006860E9A3A3A3A380D8E3F5F009E208B5FC
:1017E800F06BDFF58067E3F5F009E608B5F05EDF3A
:1017F800F5805A87F009E608B5F052DFF6804E8783
:10180800F009E208B5F046DFF6804288828C8387CB
:10181800F009E0A3B5F036DFF6803288828C838742
:10182800F009E493A3B5F025DFF5802188828C8345
:10183800E3F5F009E0A3B5F014DFF5801088828C99
:1018480083E3F5F009E493A3B5F002DFF40219107D
:10185800808780E9809080D4803E8015806E807E6D
:10186800809D80B7808D80A380518074803C021950
:101878001C89828A83ECFAE493F5F0A3C8C582C870
:10188800CCC583CCE493A3C8C582C8CCC583CCB5EA
:10189800F076DFE3DEE1807089828A83E493F5F0F5
:1018A800A3E208B5F062DFF4805E89828A83E0F5FE
:1018B800F0A3E608B5F051DFF5804D89828A83E010
:1018C800F5F0A3E208B5F040DFF5803C89828A8311
:1018D800E493F5F0A3E608B5F02EDFF4802A800241
:1018E800805789828A83ECFAE493F5F0A3C8C5820D
:1018F800C8CCC583CCE0A3C8C582C8CCC583CCB549
:10190800F006DFE4DEE280007FFFB5F0020F224040
:10191800027F012289828A83ECFAE0F5F0A3C8C528
:1019280082C8CCC583CCE0A3C8C582C8CCC583CC4B
:10193800B5F0D5DFE5DEE380CF89828A83ECFAE073
:10194800F5F0A3C8C582C8CCC583CCE493A3C8C5A9
:1019580082C8CCC583CCB5F0AFDFE4DEE280A988CD
:10196800F0EF60010E4E60ABED2402B40400509815
:10197800F582EB2402B40400508E23234582239081
:10198800185873EF4E6012EF60010EEDBB010B8922
:10199800828A83F0A3DFFCDEFA2289F05007F70978
:1019A800DFFCA9F022BBFEFCF309DFFCA9F02290C2
:1019B80092A9EEF0A3EFF0A31217857B007A0079C5
:1019C80000C003C002C0019092AB121765D082D04C
:1019D80083D0E06B7008E965827003EA6583700361
:1019E800021C239092AEE0FEA3E04E7003021C237B
:1019F8009092AEE0A3E0FFEEC313FEEF13FF9092C8
:101A0800A9E0FCA3E02FFFEE3CFED3EF94FEEE949A
:101A1800FF4003021C23C2AF9092A9E0A3E0540147
:101A28009092B0F09092A9E0FEA3E0FFEEC313FEFF
:101A3800EF13FF9092A9EEF0A3EFF09092A9E0FEC9
:101A4800A3E07810CEC313CE13D8F9F5F19092A97C
:101A5800E0FEA3E0EEF5F29092A9E0A3E0F5F3E44E
:101A6800F5F875F401D2FF30FCFDD2FD9092B0E09C
:101A7800640170729092AEE0FEA3E064014E700AB9
:101A8800C2FBC2FAD2F9C2F88008C2FBC2FAD2F984
:101A9800D2F8D2FE20FEFD9092AEE0FEA3E06401F3
:101AA8004E701A9092AB75F00112176EE5FC121485
:101AB800DD9092AE74FFF5F012157880299092AB04
:101AC800E475F00112176EE5FC1214DD9092ABE498
:101AD80075F00112176EE5FD1214DD9092AE74FFD9
:101AE80075F0FE1215789092AEE0FEA3E04E7003FA
:101AF800021C1E9092AEE0A3E0C39404EE94004052
:101B080003021BC79092AEE0A3E08EF01217B41B3D
:101B18003B00011B3100021B27000300001B43D2BE
:101B2800FBD2FAD2F9C2F88012D2FBD2FAC2F9C2B9
:101B3800F88008D2FBC2FAC2F9C2F8D2FE20FEFD34
:101B48009092AEE0FEA3E08EF01217B41BB4000131
:101B58001B9400021B64000300001C1E9092ABE45F
:101B680075F00112176EE5FA1214DD9092ABE47568
:101B7800F00112176EE5FB1214DD9092ABE475F0DC
:101B88000112176EE5FC1214DD021C1E9092ABE4E4
:101B980075F00112176EE5FA1214DD9092ABE47538
:101BA800F00112176EE5FB1214DD806A9092ABE427
:101BB80075F00112176EE5FA1214DD80598057D2BC
:101BC800FBD2FAD2F9D2F8D2FE20FEFD9092ABE415
:101BD80075F00112176EE5FA1214DD9092ABE475F8
:101BE800F00112176EE5FB1214DD9092ABE475F06C
:101BF8000112176EE5FC1214DD9092ABE475F0014A
:101C080012176EE5FD1214DD9092AE74FF75F0FCAC
:101C1800121578021AEEE4F5F8D2AF22909280EE0F
:101C2800F0A3EFF0A31217857B007A007900C003B8
:101C3800C002C001909282121765D082D083D0E092
:101C48006B7008E965827003EA65837003021E8F72
:101C5800909285E0FEA3E04E7003021E8F9092855D
:101C6800E0A3E0FFEEC313FEEF13FF909280E0FCC9
:101C7800A3E02FFFEE3CFED3EF94FEEE94FF40036B
:101C8800021E8FC2AF909280E0A3E0540190928729
:101C9800F0909280E0FEA3E0FFEEC313FEEF13FF87
:101CA800909280EEF0A3EFF0909280E0FEA3E078AF
:101CB80010CEC313CE13D8F9F5F1909280E0FEA3AD
:101CC800E0EEF5F2909280E0A3E0F5F3E4F5F87524
:101CD800F401D2FF30FCFDC2FD909287E0640170F0
:101CE80072909285E0FEA3E064014E700AC2FBC2C6
:101CF800FAD2F9C2F88008C2FBC2FAD2F9D2F89037
:101D08009285E0FEA3E064014E701A90928275F00D
:101D18000112176E121497F5FC90928574FFF5F076
:101D28001215788029909282E475F00112176E12CC
:101D38001497F5FC909282E475F00112176E121454
:101D480097F5FD90928574FF75F0FE121578D2FE16
:101D580020FEFD909285E0FEA3E04E7003021E8AED
:101D6800909285E0A3E0C39404EE94004003021E21
:101D780033909285E0A3E08EF01217B41DA80001FD
:101D88001D9E00021D94000300001DB0D2FBD2FA74
:101D9800D2F9C2F88012D2FBD2FAC2F9C2F880088E
:101DA800D2FBC2FAC2F9C2F8909285E0FEA3E08E97
:101DB800F01217B41E1B00011DFB00021DCC00030E
:101DC80000001E2A909282E475F00112176E121418
:101DD80097F5FA909282E475F00112176E12149733
:101DE800F5FB909282E475F00112176E121497F5C4
:101DF800FC802F909282E475F00112176E121497EE
:101E0800F5FA909282E475F00112176E121497F5A4
:101E1800FB800F909282E475F00112176E121497EE
:101E2800F5FAD2FE30FE5B80FB8057D2FBD2FAD2A5
:101E3800F9D2F8909282E475F00112176E12149795
:101E4800F5FA909282E475F00112176E121497F564
:101E5800FB909282E475F00112176E121497F5FC4C
:101E6800909282E475F00112176E121497F5FDD264
:101E7800FE20FEFD90928574FF75F0FC1215780225
:101E88001D5BE4F5F8D2AF2290925A121785909212
:101E98005DECF0A3EDF0E4A3F0A3F090925DE0FE1A
:101EA800A3E0FFA3E0FCA3E0C39FEC9E500C90923C
:101EB8005FE475F00112157880E190925DE0FEA371
:101EC800E0C39408EE94005003022098E4A3F0A322
:101ED800F090925A12176590925FE0FEA3E0F582A7
:101EE8008E831214B06401600302207290925A1219
:101EF800176590925FE0A3E029F9EA3EFA900001A5
:101F08001214B012178E1F1B031F6B061FBB100085
:101F180000207290925A12176590925FE0FEA3E03B
:101F280029F9EA3EFA7D087C00122A31909261EE86
:101F3800F0A3EFF0909261E0FEA3E04E6003022070
:101F48007290925A12176590925FE0FEA3E029F909
:101F5800EA3EFA12002E90925FE475F008121578A6
:101F680002207290925A12176590925FE0FEA3E0E9
:101F780029F9EA3EFA7D087C00122A31909261EE36
:101F8800F0A3EFF0909261E0FEA3E04E6003022020
:101F98007290925A12176590925FE0FEA3E029F9B9
:101FA800EA3EFA122BE490925FE475F00812157875
:101FB80002207290925A12176590925FE0FEA3E099
:101FC80029F9EA3EFA9000061214B0FF909263E4F1
:101FD800F0A3EFF090925FE0A3E0FF909263E0FC43
:101FE800A3E02FFFEC3EFEEF2409FFE43EFE9092B3
:101FF8005DE0FCA3E0FDD3EF9DEE9C401090925D68
:10200800E0FEA3E0FFA3EEF0A3EFF0805D90925A0C
:1020180012176590925FE0FEA3E029F9EA3EFA9074
:102028009263E0FEA3E02409FDE43EFC122A31900D
:102038009261EEF0A3EFF0909261E0FEA3E04E70A3
:102048002990925A12176590925FE0FEA3E029F951
:10205800EA3EFA1229AA909263E0FEA3E02409FF5F
:10206800E43E90925F8FF012157890925FE475F0DD
:102078000112157890925DE0FEA3E024FBFFEE3498
:10208800FFFEA3E0FCA3E0C39FEC9E5003021ED911
:1020980022C0E0C0F0C083C082C0D075D000C000AC
:1020A800C001C002C003C004C005C006C007C2AF5B
:1020B800758CBC758ACD9092D2E475F001121578B2
:1020C8009092D2E0FEA3E0D394E8EE9403401890F7
:1020D80092D2E4F0A3F0A375F0011215789092D093
:1020E800E475F00112157843C9019092DE121704C5
:1020F800E47B01FAF9F81215EE9092DE12171C90A3
:1021080092D6E475F0011215789092D8121704E46B
:10211800F81215EE9092D812171C9092DCE0FEA3EC
:10212800E0FFE4FCFD7BDC7AFFF8D31216C9400A15
:102138009092DCE475F0011215780509E509700242
:102148000508AF0EAE0DAD0CAC0BE47B01FAF9F847
:102158001215EE8F0E8E0D8D0C8C0BE47B6412160F
:1021680037AC00AD01AE02AF03EC4D4E4F7011AF6E
:102178000EAE0DAD0CAC0BEC4D4E4F6003430A0296
:10218800E47BFAFAF9F8AF0EAE0DAD0CAC0B1216F3
:1021980037AC00AD01AE02AF03EC4D4E4F7011AF3E
:1021A8000EAE0DAD0CAC0BEC4D4E4F6003430A0464
:1021B800E47BF47A01F9F8AF0EAE0DAD0CAC0B125E
:1021C8001637AC00AD01AE02AF03EC4D4E4F7011A7
:1021D800AF0EAE0DAD0CAC0BEC4D4E4F6003430A89
:1021E80008430A01D2AFD007D006D005D004D003E7
:1021F800D002D001D000D0D0D082D083D0F0D0E0AF
:1022080032E50F30E0167B017A9279E79092AEE4DE
:10221800F0A37402F07F147E001219B7E50F30E2C4
:1022280003122DF8E50F20E30302234E9092E7E016
:10223800FEA3E04E60030222C890925AF0A3F07BFE
:10224800017A92795A9092AEF0A37402F07F2B7EB5
:10225800A01219B79092E5E0FEA3E064014E601267
:1022680090925AE0FEA3E064014E70069092E4E07A
:1022780004F09092E5E0FEA3E064024E60139092B1
:102288005AE0FEA3E064024E70079092E4E0240254
:10229800F09092E5E0FEA3E064034E601390925A3A
:1022A800E0FEA3E064034E70079092E4E02404F09B
:1022B80090925AE0FEA3E0FF9092E5EEF0A3EFF0D3
:1022C8007B017A92795A9092AEE4F0A37402F07F7F
:1022D800167E001219B790925AE0FEA3E04E6024D1
:1022E800E490925AF0A3F07B017A92795A90928501
:1022F800F0A37402F07F167E00121C24E49092E290
:10230800F0A3F0229092E2E0FEA3E0C39458EE948A
:1023180002500B9092E2E475F00112157822909227
:10232800E2E0FEA3E0B4581EEEB4021A9092E2E492
:1023380075F0011215789092E7E0FEA3E04E600672
:10234800E4FFFE122D4122909268EFF0A3EDF0A376
:10235800EBF0E4909275F0A3F0909268E024D0FF3F
:10236800E43407909275F0A3EFF0909275E0FEA325
:10237800E0FF7C007D6412152390926BECF0A3EDD6
:10238800F0909275E0FEA3E0FF7C007D64121523B7
:1023980090926DEEF0A3EFF0909269E0FF90926F4B
:1023A800E4F0A3EFF090926AE0FF909271E4F0A35A
:1023B800EFF090926FE0FEA3E064014E600B909204
:1023C8006FE0A3E064024E701490926B74FFF5F016
:1023D80012157890926FE475F00C12157890926B44
:1023E800E0FEA3E07802CEC313CE13D8F9FF909293
:1023F8006BE0FCA3E02FFDEE3CFCA3E0FEA3E0783D
:1024080002CEC313CE13D8F92DFDEC3EFC90926D8D
:10241800E0FEA3E025E0FFEE33FEC3ED9FFBEC9E5C
:10242800FAA3E0FEA3E02401FFE43EFE7C007D0D5C
:102438001215117D05121523EF2BFFEE3AFEA3E0CE
:10244800FCA3E02FFFEE3CFEEF24FFFFEE34FFA3DA
:10245800F0A3EFF0909273E0FEA3E0C3EE94005077
:102468000C909273E475F00712157880E7909273D8
:10247800E0FEA3E0FF7C007D07121523909273EC29
:10248800F0A3EDF0909273E0A3E0FF22122E897F73
:1024980064122CEE7F10122CEE122F05122E897F5B
:1024A80065122CEE9092627406F0909262E0D394DA
:1024B8000074809480401D122C99909262E0245AF6
:1024C800F582E43492F583EFF0122EA4909262E044
:1024D80014F080D6122C9990925AEFF0122EBD1259
:1024E8002F05E4909262F0909262E0C394037480A6
:1024F8009480504BE0245AF582E43492F583E0FF4F
:10250800C4540F909263F0909262E0245AF582E4EA
:102518003492F583E0540F909264F0909263E075E2
:10252800F00AA4FFA3E02FFF909262E0245AF582FC
:10253800E43492F583EFF0909262E004F080A89082
:1025480092627404F0909262E0C39407748094805D
:10255800504BE0245AF582E43492F583E0FFC454EA
:102568000F909263F0909262E0245AF582E43492DC
:10257800F583E0540F909264F0909263E075F00A4E
:10258800A4FFA3E02FFF909262E0245AF582E4347E
:1025980092F583EFF0909262E004F080A890925A4E
:1025A800E0FFA3E0FDA3E0FB12234F90925DEFF064
:1025B8007B017A92795A909285E4F0A37408F07FAF
:1025C800107E00121C2422E4909267F07B017A921C
:1025D80079C89092AEF0A37408F07F9C7E0012191F
:1025E800B79092C8E0645A60030226EAA3E064A5A3
:1025F80060030226EA9092627402F0909262E0C34D
:10260800940874809480504EE024C8F582E4349293
:10261800F583E075F00A84909263F0909262E0246A
:10262800C8F582E43492F583E075F00A84909264E8
:10263800E5F0F0909263E0C454F0FFA3E02FFF9020
:102648009262E0245AF582E43492F583EFF0909296
:1026580062E004F080A590925CE09092C0F09092C5
:102668005DE09092C1F090925EE09092C2F09092FC
:102678005FE09092C4F0909260E09092C5F09092E2
:1026880061E09092C6F09092CAE0FFA3E0FDA3E05B
:10269800FB12234F909266EFF0E4909265F0A3E06E
:1026A8009092C3F090926675F00A84909263F090CD
:1026B8009266E075F00A84909264E5F0F07B017A06
:1026C8009279C01226EBE49092C8F0A3F07B017ACD
:1026D8009279C8909285F0A37408F07F9C7E0012CE
:1026E8001C2422909268121785122E897F64122C5E
:1026F800EE7F30122CEEE4FF122CEE122F05122E74
:10270800897F64122CEE7F1C122CEE7F48122CEE6F
:10271800E4FF122CEE7F40122CEE7F10122CEE12EA
:102728002F05122E897F64122CEE7F10122CEE904A
:1027380092681217659000061214B0FF122CEE90E2
:1027480092681217659000051214B0FF122CEE90D3
:1027580092681217659000041214B0FF122CEE90C4
:1027680092681217659000031214B0FF122CEE90B5
:1027780092681217659000021214B0FF122CEE90A6
:1027880092681217659000011214B0FF122CEE9097
:102798009268121765121497FF122CEE122F051269
:1027A8002E897F64122CEE7F1E122CEEE4FF122C71
:1027B800EE7F10122CEE122F0522122E897F641242
:1027C8002CEE7F1D122CEE122F05122E897F65121A
:1027D8002CEE122C9990925AEFF0122EA4122C99EA
:1027E800122EBD122F0590925AE054026402600323
:1027F800022881122E897F64122CEE7F30122CEE73
:10280800E4FF122CEE122F05122E897F64122CEE93
:102818007F1C122CEE7F48122CEEE4FF122CEE7F68
:1028280040122CEE7F10122CEE122F05122E897FEB
:1028380064122CEE7F10122CEEE4FF122CEEE4FF53
:10284800122CEEE4FF122CEE7F01122CEE7F011207
:102858002CEE7F01122CEE7F17122CEE122F051290
:102868002E897F64122CEE7F1E122CEEE4FF122CB0
:10287800EE7F10122CEE122F052275940175950229
:10288800758E0075930075C87075C96075F8007805
:102898007FE4F6D8FD7581100228DE022B1AE49336
:1028A800A3F8E493A34003F68001F208DFF480293B
:1028B800E493A3F85407240CC8C333C4540F44202A
:1028C800C8834004F456800146F6DFE4800B010219
:1028D800040810204080900100E47E019360BCA3AE
:1028E800FF543F30E509541FFEE493A360010ECF67
:1028F80054C025E060A840B8E493A3FAE493A3F891
:10290800E493A3C8C582C8CAC583CAF0A3C8C58250
:10291800C8CAC583CADFE9DEE780BE9091D4E06407
:1029280001707E9091CFE0FF9091D5E0D39F401049
:10293800E09091CFF09092561217280000000022E4
:102948009091CFE0FF9091D5E06F7055FFFEFDFCB0
:10295800909256121710D31216DF403790925612E3
:102968001710C3E50E9BFFE50D9AFEE50C99FDE5F2
:102978000B98FCE47B0AFAF9F8C31216DF50227BA5
:10298800017A9179D69091D5E0FD7C00121E9012C3
:102998002E2422AF0EAE0DAD0CAC0B909256121732
:1029A8001C22909265121785909265121765900007
:1029B800021214B0FE90926512176590000312146B
:1029C800B0FDEEEDFF90927CEEF0A3EFF0909265F3
:1029D8001217659000061214B0FF90927EE4F0A3DF
:1029E800EFF090927CE0FEA3E0FF909265121765ED
:1029F800E92407F9E43AFA90927EE0FCA3E0FD901E
:102A08009285ECF0A3EDF0121C24909265121765E4
:102A180078687C927D017E007F061214717B017AB2
:102A28009279687D06122AAC229092AF121785908F
:102A380092B2ECF0A3EDF0A374FFF0A3F09092B281
:102A480074FFF5F012158E45F0604D9092AFE47565
:102A5800F00112176E121497FF9092B4E06FFF9076
:102A680092B6E4F0A3EFF09092B6E0FEA3E02469FA
:102A7800F582748E3EF583E0FF9092B5E06F9092F8
:102A8800B4F09092B6E0A3E02469F582748F3EF525
:102A980083E09092B5F080A59092B4E0FEA3E0FDAB
:102AA800EEEDFF229092A91217859092ACEDF0906E
:102AB80092A91217659092ACE0FD7C00122A319021
:102AC80092ADEEF0A3EFF09092ADE0FEA3E0EEFF42
:102AD8009092A91217659092ACE0FE04F08E827570
:102AE8008300EF1214EF9092ADE0A3E0FF9092A95B
:102AF8001217659092ACE0FE04F08E82758300EFA9
:102B08001214EF9092A91217659092ACE0FD122C66
:102B18003F22122F1C1227C2122F52E50A30E0273B
:102B2800430F01E50A30E103430F02E50A30E203EF
:102B3800430F04E50A30E303430F08530AFE530A20
:102B4800FD530AFB530AF743C901C3E50994F4E5A9
:102B5800089401400B122494E4F508F5091225CFD6
:102B6800122923122209E50F30E0B0530FFE530F4C
:102B7800FD530FFB530FF780A222C0E0C083C08231
:102B8800C0D075D000C006C0079092B8E4F0C2AFBC
:102B9800309830E599F09091D5E0C3948074809492
:102BA80080501E9092B8E0FF9091D5E0FE04F0743A
:102BB800D62EF582E43491F583EFF09091D4740128
:102BC800F0C298309907C2999092EDE4F0D2AFD054
:102BD80007D006D0D0D082D083D0E0329092651250
:102BE80017859092651217659000021214B0FE9036
:102BF80092651217659000031214B0FDEEEDFF9078
:102C08009265121765E92404F9E43AFA909285E48A
:102C1800F0A37402F0121C2490926512176578686C
:102C28007C927D017E007F061214717B017A927975
:102C3800687D06122AAC229092AF1217859092B244
:102C4800EDF07B007A007900C003C002C0019092C9
:102C5800AF121765D082D083D0E06B7008E9658227
:102C68007003EA658360299092B2E060239092B283
:102C7800E0FF14F0EF60199092AF121765121497E5
:102C8800FF122EEE9092B0E475F00112157880DDF7
:102C9800221200EFE4909265F0909265E0FF339580
:102CA800E0FEC3EF9408EE6480948050337F0512F1
:102CB8002DC6D2B27F05122DC6909266E0FF25E0A0
:102CC800F030B306E04401F08007909266E054FECD
:102CD800F0C2B27F05122DC6909265E004F080B96B
:102CE800909266E0FF2290926BEFF01200F3E4A35B
:102CF800F090926CE0FF3395E0FEC3EF9408EE6429
:102D0800809480503090926BE030E704D2B3800218
:102D1800C2B390926BE0FF25E0F07F05122DC6D27A
:102D2800B27F05122DC6C2B27F05122DC690926CD5
:102D3800E004F080BC122D882290925CEEF0A3EFA4
:102D4800F07BFF7A2F7963785E7C927D017E007F2D
:102D58000412147190925CE0FEA3E0EE909260F091
:102D680090925CA3E0909261F07B017A92795E90F8
:102D78009285E4F0A37404F07F847E00121C242260
:102D88001200EFD2B37F05122DC6D2B27F05122DE5
:102D9800C6E490926DF090926DE0C3943274809482
:102DA80080501030B30D7F05122DC690926DE0044F
:102DB800F080E3C2B27F05122DC61200F322909272
:102DC8006EEFF090926EE06026E4A3F090926FE0D0
:102DD800FF3395E0FEC3EF9432EE64809480500791
:102DE800E0F0E004F080E590926EE014F080D422E8
:102DF8009092E4E0602590925CE4F0A37405F09072
:102E080092E4E014F07B017A92795C909285E4F088
:102E1800A37402F07FA07E00121C2422E49091D5B6
:102E2800F09091D4F0FE7F80FD7B017A9179D612E3
:102E3800198BE49091CFF090925612172800000059
:102E4800002275F901E4F5A8F5B8F59AF5A9F5B9E0
:102E5800F580F590F5A0F5B075B750F5BCF5BDF562
:102E6800BE2243B71043C940E49092EDF075D88074
:102E780075985053877F75BA0375AA58D29CD2ACFF
:102E8800221200F3D2B3D2B27F0F122DC6C2B37F83
:102E98000F122DC6C2B27F0F122DC6221200F3C226
:102EA800B37F05122DC6D2B27F05122DC6C2B27FDE
:102EB80005122DC6221200F3D2B37F05122DC6D2F9
:102EC800B27F05122DC6C2B27F05122DC62275F932
:102ED8000175B70375BC03E4F5BD75BE0CF580F547
:102EE80090F5A0F5B0229092B3EFF09092EDE064E7
:102EF8000160F87401F09092B3E0F599221200F3A2
:102F0800C2B3D2B27F0F122DC6D2B37F0F122DC615
:102F18001200EF22C2AF12001D122ED61200261286
:102F2800001643C902D2AF2275C870E4F5CDF5CCBE
:102F380075CBFF75CAEF43A820D2C8224389017513
:102F48008CBC758ACDD2A9D28C22122E249091D015
:102F58001217280000000022C2C6325A01000000E1
:102F68000000000000000000000000000000000059
:102F78000000000000000000000000000000000049
:102F88000000000000000000000000000000000039
:102F98000000000000000000000000000000000029
:102FA8000000000000000000000000000000000019
:102FB8000000000000000000000000000000000009
:012FC8000008
:00000001FF
